{
	"Staking.sol": {
		"StakingRewards": {
			"abi": [
				{
					"inputs": [
						{
							"internalType": "address",
							"name": "_stakingToken",
							"type": "address"
						},
						{
							"internalType": "address",
							"name": "_rewardsToken",
							"type": "address"
						}
					],
					"stateMutability": "nonpayable",
					"type": "constructor"
				},
				{
					"inputs": [
						{
							"internalType": "address",
							"name": "account",
							"type": "address"
						}
					],
					"name": "earned",
					"outputs": [
						{
							"internalType": "uint256",
							"name": "",
							"type": "uint256"
						}
					],
					"stateMutability": "view",
					"type": "function"
				},
				{
					"inputs": [],
					"name": "getReward",
					"outputs": [],
					"stateMutability": "nonpayable",
					"type": "function"
				},
				{
					"inputs": [],
					"name": "lastUpdateTime",
					"outputs": [
						{
							"internalType": "uint256",
							"name": "",
							"type": "uint256"
						}
					],
					"stateMutability": "view",
					"type": "function"
				},
				{
					"inputs": [],
					"name": "rewardPerToken",
					"outputs": [
						{
							"internalType": "uint256",
							"name": "",
							"type": "uint256"
						}
					],
					"stateMutability": "view",
					"type": "function"
				},
				{
					"inputs": [],
					"name": "rewardPerTokenStored",
					"outputs": [
						{
							"internalType": "uint256",
							"name": "",
							"type": "uint256"
						}
					],
					"stateMutability": "view",
					"type": "function"
				},
				{
					"inputs": [],
					"name": "rewardRate",
					"outputs": [
						{
							"internalType": "uint256",
							"name": "",
							"type": "uint256"
						}
					],
					"stateMutability": "view",
					"type": "function"
				},
				{
					"inputs": [
						{
							"internalType": "address",
							"name": "",
							"type": "address"
						}
					],
					"name": "rewards",
					"outputs": [
						{
							"internalType": "uint256",
							"name": "",
							"type": "uint256"
						}
					],
					"stateMutability": "view",
					"type": "function"
				},
				{
					"inputs": [],
					"name": "rewardsToken",
					"outputs": [
						{
							"internalType": "contract IERC20",
							"name": "",
							"type": "address"
						}
					],
					"stateMutability": "view",
					"type": "function"
				},
				{
					"inputs": [
						{
							"internalType": "uint256",
							"name": "_amount",
							"type": "uint256"
						}
					],
					"name": "stake",
					"outputs": [],
					"stateMutability": "nonpayable",
					"type": "function"
				},
				{
					"inputs": [],
					"name": "stakingToken",
					"outputs": [
						{
							"internalType": "contract IERC20",
							"name": "",
							"type": "address"
						}
					],
					"stateMutability": "view",
					"type": "function"
				},
				{
					"inputs": [
						{
							"internalType": "address",
							"name": "",
							"type": "address"
						}
					],
					"name": "userRewardPerTokenPaid",
					"outputs": [
						{
							"internalType": "uint256",
							"name": "",
							"type": "uint256"
						}
					],
					"stateMutability": "view",
					"type": "function"
				},
				{
					"inputs": [
						{
							"internalType": "uint256",
							"name": "_amount",
							"type": "uint256"
						}
					],
					"name": "withdraw",
					"outputs": [],
					"stateMutability": "nonpayable",
					"type": "function"
				}
			],
			"devdoc": {
				"kind": "dev",
				"methods": {},
				"version": 1
			},
			"evm": {
				"assembly": "    /* \"Staking.sol\":58:2070  contract StakingRewards {\r... */\n  mstore(0x40, 0x80)\n    /* \"Staking.sol\":182:185  100 */\n  0x64\n    /* \"Staking.sol\":157:185  uint public rewardRate = 100 */\n  0x02\n  sstore\n    /* \"Staking.sol\":458:618  constructor(address _stakingToken, address _rewardsToken) {\r... */\n  callvalue\n  dup1\n  iszero\n  tag_1\n  jumpi\n  0x00\n  dup1\n  revert\ntag_1:\n  pop\n  mload(0x40)\n  sub(codesize, bytecodeSize)\n  dup1\n  bytecodeSize\n  dup4\n  codecopy\n  dup2\n  dup2\n  add\n  0x40\n  mstore\n  dup2\n  add\n  swap1\n  tag_2\n  swap2\n  swap1\n  tag_3\n  jump\t// in\ntag_2:\n    /* \"Staking.sol\":549:562  _stakingToken */\n  dup2\n    /* \"Staking.sol\":527:539  stakingToken */\n  0x01\n  0x00\n    /* \"Staking.sol\":527:563  stakingToken = IERC20(_stakingToken) */\n  0x0100\n  exp\n  dup2\n  sload\n  dup2\n  0xffffffffffffffffffffffffffffffffffffffff\n  mul\n  not\n  and\n  swap1\n  dup4\n  0xffffffffffffffffffffffffffffffffffffffff\n  and\n  mul\n  or\n  swap1\n  sstore\n  pop\n    /* \"Staking.sol\":596:609  _rewardsToken */\n  dup1\n    /* \"Staking.sol\":574:586  rewardsToken */\n  0x00\n  dup1\n    /* \"Staking.sol\":574:610  rewardsToken = IERC20(_rewardsToken) */\n  0x0100\n  exp\n  dup2\n  sload\n  dup2\n  0xffffffffffffffffffffffffffffffffffffffff\n  mul\n  not\n  and\n  swap1\n  dup4\n  0xffffffffffffffffffffffffffffffffffffffff\n  and\n  mul\n  or\n  swap1\n  sstore\n  pop\n    /* \"Staking.sol\":458:618  constructor(address _stakingToken, address _rewardsToken) {\r... */\n  pop\n  pop\n    /* \"Staking.sol\":58:2070  contract StakingRewards {\r... */\n  jump(tag_6)\n    /* \"#utility.yul\":7:150   */\ntag_8:\n    /* \"#utility.yul\":64:69   */\n  0x00\n    /* \"#utility.yul\":95:101   */\n  dup2\n    /* \"#utility.yul\":89:102   */\n  mload\n    /* \"#utility.yul\":80:102   */\n  swap1\n  pop\n    /* \"#utility.yul\":111:144   */\n  tag_10\n    /* \"#utility.yul\":138:143   */\n  dup2\n    /* \"#utility.yul\":111:144   */\n  tag_11\n  jump\t// in\ntag_10:\n    /* \"#utility.yul\":7:150   */\n  swap3\n  swap2\n  pop\n  pop\n  jump\t// out\n    /* \"#utility.yul\":156:663   */\ntag_3:\n    /* \"#utility.yul\":235:241   */\n  0x00\n    /* \"#utility.yul\":243:249   */\n  dup1\n    /* \"#utility.yul\":292:294   */\n  0x40\n    /* \"#utility.yul\":280:289   */\n  dup4\n    /* \"#utility.yul\":271:278   */\n  dup6\n    /* \"#utility.yul\":267:290   */\n  sub\n    /* \"#utility.yul\":263:295   */\n  slt\n    /* \"#utility.yul\":260:379   */\n  iszero\n  tag_13\n  jumpi\n    /* \"#utility.yul\":298:377   */\n  tag_14\n  tag_15\n  jump\t// in\ntag_14:\n    /* \"#utility.yul\":260:379   */\ntag_13:\n    /* \"#utility.yul\":418:419   */\n  0x00\n    /* \"#utility.yul\":443:507   */\n  tag_16\n    /* \"#utility.yul\":499:506   */\n  dup6\n    /* \"#utility.yul\":490:496   */\n  dup3\n    /* \"#utility.yul\":479:488   */\n  dup7\n    /* \"#utility.yul\":475:497   */\n  add\n    /* \"#utility.yul\":443:507   */\n  tag_8\n  jump\t// in\ntag_16:\n    /* \"#utility.yul\":433:507   */\n  swap3\n  pop\n    /* \"#utility.yul\":389:517   */\n  pop\n    /* \"#utility.yul\":556:558   */\n  0x20\n    /* \"#utility.yul\":582:646   */\n  tag_17\n    /* \"#utility.yul\":638:645   */\n  dup6\n    /* \"#utility.yul\":629:635   */\n  dup3\n    /* \"#utility.yul\":618:627   */\n  dup7\n    /* \"#utility.yul\":614:636   */\n  add\n    /* \"#utility.yul\":582:646   */\n  tag_8\n  jump\t// in\ntag_17:\n    /* \"#utility.yul\":572:646   */\n  swap2\n  pop\n    /* \"#utility.yul\":527:656   */\n  pop\n    /* \"#utility.yul\":156:663   */\n  swap3\n  pop\n  swap3\n  swap1\n  pop\n  jump\t// out\n    /* \"#utility.yul\":750:846   */\ntag_20:\n    /* \"#utility.yul\":787:794   */\n  0x00\n    /* \"#utility.yul\":816:840   */\n  tag_22\n    /* \"#utility.yul\":834:839   */\n  dup3\n    /* \"#utility.yul\":816:840   */\n  tag_23\n  jump\t// in\ntag_22:\n    /* \"#utility.yul\":805:840   */\n  swap1\n  pop\n    /* \"#utility.yul\":750:846   */\n  swap2\n  swap1\n  pop\n  jump\t// out\n    /* \"#utility.yul\":852:978   */\ntag_23:\n    /* \"#utility.yul\":889:896   */\n  0x00\n    /* \"#utility.yul\":929:971   */\n  0xffffffffffffffffffffffffffffffffffffffff\n    /* \"#utility.yul\":922:927   */\n  dup3\n    /* \"#utility.yul\":918:972   */\n  and\n    /* \"#utility.yul\":907:972   */\n  swap1\n  pop\n    /* \"#utility.yul\":852:978   */\n  swap2\n  swap1\n  pop\n  jump\t// out\n    /* \"#utility.yul\":1107:1224   */\ntag_15:\n    /* \"#utility.yul\":1216:1217   */\n  0x00\n    /* \"#utility.yul\":1213:1214   */\n  dup1\n    /* \"#utility.yul\":1206:1218   */\n  revert\n    /* \"#utility.yul\":1230:1352   */\ntag_11:\n    /* \"#utility.yul\":1303:1327   */\n  tag_29\n    /* \"#utility.yul\":1321:1326   */\n  dup2\n    /* \"#utility.yul\":1303:1327   */\n  tag_20\n  jump\t// in\ntag_29:\n    /* \"#utility.yul\":1296:1301   */\n  dup2\n    /* \"#utility.yul\":1293:1328   */\n  eq\n    /* \"#utility.yul\":1283:1346   */\n  tag_30\n  jumpi\n    /* \"#utility.yul\":1342:1343   */\n  0x00\n    /* \"#utility.yul\":1339:1340   */\n  dup1\n    /* \"#utility.yul\":1332:1344   */\n  revert\n    /* \"#utility.yul\":1283:1346   */\ntag_30:\n    /* \"#utility.yul\":1230:1352   */\n  pop\n  jump\t// out\n    /* \"Staking.sol\":58:2070  contract StakingRewards {\r... */\ntag_6:\n  dataSize(sub_0)\n  dup1\n  dataOffset(sub_0)\n  0x00\n  codecopy\n  0x00\n  return\nstop\n\nsub_0: assembly {\n        /* \"Staking.sol\":58:2070  contract StakingRewards {\r... */\n      mstore(0x40, 0x80)\n      callvalue\n      dup1\n      iszero\n      tag_1\n      jumpi\n      0x00\n      dup1\n      revert\n    tag_1:\n      pop\n      jumpi(tag_2, lt(calldatasize, 0x04))\n      shr(0xe0, calldataload(0x00))\n      dup1\n      0x8b876347\n      gt\n      tag_15\n      jumpi\n      dup1\n      0x8b876347\n      eq\n      tag_9\n      jumpi\n      dup1\n      0xa694fc3a\n      eq\n      tag_10\n      jumpi\n      dup1\n      0xc8f33c91\n      eq\n      tag_11\n      jumpi\n      dup1\n      0xcd3daf9d\n      eq\n      tag_12\n      jumpi\n      dup1\n      0xd1af0c7d\n      eq\n      tag_13\n      jumpi\n      dup1\n      0xdf136d65\n      eq\n      tag_14\n      jumpi\n      jump(tag_2)\n    tag_15:\n      dup1\n      0x8cc262\n      eq\n      tag_3\n      jumpi\n      dup1\n      0x0700037d\n      eq\n      tag_4\n      jumpi\n      dup1\n      0x2e1a7d4d\n      eq\n      tag_5\n      jumpi\n      dup1\n      0x3d18b912\n      eq\n      tag_6\n      jumpi\n      dup1\n      0x72f702f3\n      eq\n      tag_7\n      jumpi\n      dup1\n      0x7b0a47ee\n      eq\n      tag_8\n      jumpi\n    tag_2:\n      0x00\n      dup1\n      revert\n        /* \"Staking.sol\":922:1154  function earned(address account) public view returns (uint) {\r... */\n    tag_3:\n      tag_16\n      0x04\n      dup1\n      calldatasize\n      sub\n      dup2\n      add\n      swap1\n      tag_17\n      swap2\n      swap1\n      tag_18\n      jump\t// in\n    tag_17:\n      tag_19\n      jump\t// in\n    tag_16:\n      mload(0x40)\n      tag_20\n      swap2\n      swap1\n      tag_21\n      jump\t// in\n    tag_20:\n      mload(0x40)\n      dup1\n      swap2\n      sub\n      swap1\n      return\n        /* \"Staking.sol\":327:366  mapping(address => uint) public rewards */\n    tag_4:\n      tag_22\n      0x04\n      dup1\n      calldatasize\n      sub\n      dup2\n      add\n      swap1\n      tag_23\n      swap2\n      swap1\n      tag_18\n      jump\t// in\n    tag_23:\n      tag_24\n      jump\t// in\n    tag_22:\n      mload(0x40)\n      tag_25\n      swap2\n      swap1\n      tag_21\n      jump\t// in\n    tag_25:\n      mload(0x40)\n      dup1\n      swap2\n      sub\n      swap1\n      return\n        /* \"Staking.sol\":1662:1866  function withdraw(uint _amount) external updateReward(msg.sender) {\r... */\n    tag_5:\n      tag_26\n      0x04\n      dup1\n      calldatasize\n      sub\n      dup2\n      add\n      swap1\n      tag_27\n      swap2\n      swap1\n      tag_28\n      jump\t// in\n    tag_27:\n      tag_29\n      jump\t// in\n    tag_26:\n      stop\n        /* \"Staking.sol\":1874:2067  function getReward() external updateReward(msg.sender) {\r... */\n    tag_6:\n      tag_30\n      tag_31\n      jump\t// in\n    tag_30:\n      stop\n        /* \"Staking.sol\":122:148  IERC20 public stakingToken */\n    tag_7:\n      tag_32\n      tag_33\n      jump\t// in\n    tag_32:\n      mload(0x40)\n      tag_34\n      swap2\n      swap1\n      tag_35\n      jump\t// in\n    tag_34:\n      mload(0x40)\n      dup1\n      swap2\n      sub\n      swap1\n      return\n        /* \"Staking.sol\":157:185  uint public rewardRate = 100 */\n    tag_8:\n      tag_36\n      tag_37\n      jump\t// in\n    tag_36:\n      mload(0x40)\n      tag_38\n      swap2\n      swap1\n      tag_21\n      jump\t// in\n    tag_38:\n      mload(0x40)\n      dup1\n      swap2\n      sub\n      swap1\n      return\n        /* \"Staking.sol\":266:320  mapping(address => uint) public userRewardPerTokenPaid */\n    tag_9:\n      tag_39\n      0x04\n      dup1\n      calldatasize\n      sub\n      dup2\n      add\n      swap1\n      tag_40\n      swap2\n      swap1\n      tag_18\n      jump\t// in\n    tag_40:\n      tag_41\n      jump\t// in\n    tag_39:\n      mload(0x40)\n      tag_42\n      swap2\n      swap1\n      tag_21\n      jump\t// in\n    tag_42:\n      mload(0x40)\n      dup1\n      swap2\n      sub\n      swap1\n      return\n        /* \"Staking.sol\":1434:1654  function stake(uint _amount) external updateReward(msg.sender) {\r... */\n    tag_10:\n      tag_43\n      0x04\n      dup1\n      calldatasize\n      sub\n      dup2\n      add\n      swap1\n      tag_44\n      swap2\n      swap1\n      tag_28\n      jump\t// in\n    tag_44:\n      tag_45\n      jump\t// in\n    tag_43:\n      stop\n        /* \"Staking.sol\":192:218  uint public lastUpdateTime */\n    tag_11:\n      tag_46\n      tag_47\n      jump\t// in\n    tag_46:\n      mload(0x40)\n      tag_48\n      swap2\n      swap1\n      tag_21\n      jump\t// in\n    tag_48:\n      mload(0x40)\n      dup1\n      swap2\n      sub\n      swap1\n      return\n        /* \"Staking.sol\":626:914  function rewardPerToken() public view returns (uint) {\r... */\n    tag_12:\n      tag_49\n      tag_50\n      jump\t// in\n    tag_49:\n      mload(0x40)\n      tag_51\n      swap2\n      swap1\n      tag_21\n      jump\t// in\n    tag_51:\n      mload(0x40)\n      dup1\n      swap2\n      sub\n      swap1\n      return\n        /* \"Staking.sol\":89:115  IERC20 public rewardsToken */\n    tag_13:\n      tag_52\n      tag_53\n      jump\t// in\n    tag_52:\n      mload(0x40)\n      tag_54\n      swap2\n      swap1\n      tag_35\n      jump\t// in\n    tag_54:\n      mload(0x40)\n      dup1\n      swap2\n      sub\n      swap1\n      return\n        /* \"Staking.sol\":225:257  uint public rewardPerTokenStored */\n    tag_14:\n      tag_55\n      tag_56\n      jump\t// in\n    tag_55:\n      mload(0x40)\n      tag_57\n      swap2\n      swap1\n      tag_21\n      jump\t// in\n    tag_57:\n      mload(0x40)\n      dup1\n      swap2\n      sub\n      swap1\n      return\n        /* \"Staking.sol\":922:1154  function earned(address account) public view returns (uint) {\r... */\n    tag_19:\n        /* \"Staking.sol\":976:980  uint */\n      0x00\n        /* \"Staking.sol\":1130:1137  rewards */\n      0x06\n        /* \"Staking.sol\":1130:1146  rewards[account] */\n      0x00\n        /* \"Staking.sol\":1138:1145  account */\n      dup4\n        /* \"Staking.sol\":1130:1146  rewards[account] */\n      0xffffffffffffffffffffffffffffffffffffffff\n      and\n      0xffffffffffffffffffffffffffffffffffffffff\n      and\n      dup2\n      mstore\n      0x20\n      add\n      swap1\n      dup2\n      mstore\n      0x20\n      add\n      0x00\n      keccak256\n      sload\n        /* \"Staking.sol\":1109:1113  1e18 */\n      0x0de0b6b3a7640000\n        /* \"Staking.sol\":1073:1095  userRewardPerTokenPaid */\n      0x05\n        /* \"Staking.sol\":1073:1104  userRewardPerTokenPaid[account] */\n      0x00\n        /* \"Staking.sol\":1096:1103  account */\n      dup6\n        /* \"Staking.sol\":1073:1104  userRewardPerTokenPaid[account] */\n      0xffffffffffffffffffffffffffffffffffffffff\n      and\n      0xffffffffffffffffffffffffffffffffffffffff\n      and\n      dup2\n      mstore\n      0x20\n      add\n      swap1\n      dup2\n      mstore\n      0x20\n      add\n      0x00\n      keccak256\n      sload\n        /* \"Staking.sol\":1054:1070  rewardPerToken() */\n      tag_59\n        /* \"Staking.sol\":1054:1068  rewardPerToken */\n      tag_50\n        /* \"Staking.sol\":1054:1070  rewardPerToken() */\n      jump\t// in\n    tag_59:\n        /* \"Staking.sol\":1054:1104  rewardPerToken() - userRewardPerTokenPaid[account] */\n      tag_60\n      swap2\n      swap1\n      tag_61\n      jump\t// in\n    tag_60:\n        /* \"Staking.sol\":1015:1024  _balances */\n      0x08\n        /* \"Staking.sol\":1015:1033  _balances[account] */\n      0x00\n        /* \"Staking.sol\":1025:1032  account */\n      dup7\n        /* \"Staking.sol\":1015:1033  _balances[account] */\n      0xffffffffffffffffffffffffffffffffffffffff\n      and\n      0xffffffffffffffffffffffffffffffffffffffff\n      and\n      dup2\n      mstore\n      0x20\n      add\n      swap1\n      dup2\n      mstore\n      0x20\n      add\n      0x00\n      keccak256\n      sload\n        /* \"Staking.sol\":1015:1105  _balances[account] *\r... */\n      tag_62\n      swap2\n      swap1\n      tag_63\n      jump\t// in\n    tag_62:\n        /* \"Staking.sol\":1014:1113  (_balances[account] *\r... */\n      tag_64\n      swap2\n      swap1\n      tag_65\n      jump\t// in\n    tag_64:\n        /* \"Staking.sol\":1013:1146  ((_balances[account] *\r... */\n      tag_66\n      swap2\n      swap1\n      tag_67\n      jump\t// in\n    tag_66:\n        /* \"Staking.sol\":993:1146  return\r... */\n      swap1\n      pop\n        /* \"Staking.sol\":922:1154  function earned(address account) public view returns (uint) {\r... */\n      swap2\n      swap1\n      pop\n      jump\t// out\n        /* \"Staking.sol\":327:366  mapping(address => uint) public rewards */\n    tag_24:\n      mstore(0x20, 0x06)\n      dup1\n      0x00\n      mstore\n      keccak256(0x00, 0x40)\n      0x00\n      swap2\n      pop\n      swap1\n      pop\n      sload\n      dup2\n      jump\t// out\n        /* \"Staking.sol\":1662:1866  function withdraw(uint _amount) external updateReward(msg.sender) {\r... */\n    tag_29:\n        /* \"Staking.sol\":1716:1726  msg.sender */\n      caller\n        /* \"Staking.sol\":1235:1251  rewardPerToken() */\n      tag_69\n        /* \"Staking.sol\":1235:1249  rewardPerToken */\n      tag_50\n        /* \"Staking.sol\":1235:1251  rewardPerToken() */\n      jump\t// in\n    tag_69:\n        /* \"Staking.sol\":1212:1232  rewardPerTokenStored */\n      0x04\n        /* \"Staking.sol\":1212:1251  rewardPerTokenStored = rewardPerToken() */\n      dup2\n      swap1\n      sstore\n      pop\n        /* \"Staking.sol\":1279:1294  block.timestamp */\n      timestamp\n        /* \"Staking.sol\":1262:1276  lastUpdateTime */\n      0x03\n        /* \"Staking.sol\":1262:1294  lastUpdateTime = block.timestamp */\n      dup2\n      swap1\n      sstore\n      pop\n        /* \"Staking.sol\":1326:1341  earned(account) */\n      tag_70\n        /* \"Staking.sol\":1333:1340  account */\n      dup2\n        /* \"Staking.sol\":1326:1332  earned */\n      tag_19\n        /* \"Staking.sol\":1326:1341  earned(account) */\n      jump\t// in\n    tag_70:\n        /* \"Staking.sol\":1307:1314  rewards */\n      0x06\n        /* \"Staking.sol\":1307:1323  rewards[account] */\n      0x00\n        /* \"Staking.sol\":1315:1322  account */\n      dup4\n        /* \"Staking.sol\":1307:1323  rewards[account] */\n      0xffffffffffffffffffffffffffffffffffffffff\n      and\n      0xffffffffffffffffffffffffffffffffffffffff\n      and\n      dup2\n      mstore\n      0x20\n      add\n      swap1\n      dup2\n      mstore\n      0x20\n      add\n      0x00\n      keccak256\n        /* \"Staking.sol\":1307:1341  rewards[account] = earned(account) */\n      dup2\n      swap1\n      sstore\n      pop\n        /* \"Staking.sol\":1386:1406  rewardPerTokenStored */\n      sload(0x04)\n        /* \"Staking.sol\":1352:1374  userRewardPerTokenPaid */\n      0x05\n        /* \"Staking.sol\":1352:1383  userRewardPerTokenPaid[account] */\n      0x00\n        /* \"Staking.sol\":1375:1382  account */\n      dup4\n        /* \"Staking.sol\":1352:1383  userRewardPerTokenPaid[account] */\n      0xffffffffffffffffffffffffffffffffffffffff\n      and\n      0xffffffffffffffffffffffffffffffffffffffff\n      and\n      dup2\n      mstore\n      0x20\n      add\n      swap1\n      dup2\n      mstore\n      0x20\n      add\n      0x00\n      keccak256\n        /* \"Staking.sol\":1352:1406  userRewardPerTokenPaid[account] = rewardPerTokenStored */\n      dup2\n      swap1\n      sstore\n      pop\n        /* \"Staking.sol\":1755:1762  _amount */\n      dup2\n        /* \"Staking.sol\":1739:1751  _totalSupply */\n      0x07\n      0x00\n        /* \"Staking.sol\":1739:1762  _totalSupply -= _amount */\n      dup3\n      dup3\n      sload\n      tag_72\n      swap2\n      swap1\n      tag_61\n      jump\t// in\n    tag_72:\n      swap3\n      pop\n      pop\n      dup2\n      swap1\n      sstore\n      pop\n        /* \"Staking.sol\":1798:1805  _amount */\n      dup2\n        /* \"Staking.sol\":1773:1782  _balances */\n      0x08\n        /* \"Staking.sol\":1773:1794  _balances[msg.sender] */\n      0x00\n        /* \"Staking.sol\":1783:1793  msg.sender */\n      caller\n        /* \"Staking.sol\":1773:1794  _balances[msg.sender] */\n      0xffffffffffffffffffffffffffffffffffffffff\n      and\n      0xffffffffffffffffffffffffffffffffffffffff\n      and\n      dup2\n      mstore\n      0x20\n      add\n      swap1\n      dup2\n      mstore\n      0x20\n      add\n      0x00\n      keccak256\n      0x00\n        /* \"Staking.sol\":1773:1805  _balances[msg.sender] -= _amount */\n      dup3\n      dup3\n      sload\n      tag_73\n      swap2\n      swap1\n      tag_61\n      jump\t// in\n    tag_73:\n      swap3\n      pop\n      pop\n      dup2\n      swap1\n      sstore\n      pop\n        /* \"Staking.sol\":1816:1828  stakingToken */\n      0x01\n      0x00\n      swap1\n      sload\n      swap1\n      0x0100\n      exp\n      swap1\n      div\n      0xffffffffffffffffffffffffffffffffffffffff\n      and\n        /* \"Staking.sol\":1816:1837  stakingToken.transfer */\n      0xffffffffffffffffffffffffffffffffffffffff\n      and\n      0xa9059cbb\n        /* \"Staking.sol\":1838:1848  msg.sender */\n      caller\n        /* \"Staking.sol\":1850:1857  _amount */\n      dup5\n        /* \"Staking.sol\":1816:1858  stakingToken.transfer(msg.sender, _amount) */\n      mload(0x40)\n      dup4\n      0xffffffff\n      and\n      0xe0\n      shl\n      dup2\n      mstore\n      0x04\n      add\n      tag_74\n      swap3\n      swap2\n      swap1\n      tag_75\n      jump\t// in\n    tag_74:\n      0x20\n      mload(0x40)\n      dup1\n      dup4\n      sub\n      dup2\n      0x00\n      dup8\n      dup1\n      extcodesize\n      iszero\n      dup1\n      iszero\n      tag_76\n      jumpi\n      0x00\n      dup1\n      revert\n    tag_76:\n      pop\n      gas\n      call\n      iszero\n      dup1\n      iszero\n      tag_78\n      jumpi\n      returndatasize\n      0x00\n      dup1\n      returndatacopy\n      revert(0x00, returndatasize)\n    tag_78:\n      pop\n      pop\n      pop\n      pop\n      mload(0x40)\n      returndatasize\n      not(0x1f)\n      0x1f\n      dup3\n      add\n      and\n      dup3\n      add\n      dup1\n      0x40\n      mstore\n      pop\n      dup2\n      add\n      swap1\n      tag_79\n      swap2\n      swap1\n      tag_80\n      jump\t// in\n    tag_79:\n      pop\n        /* \"Staking.sol\":1662:1866  function withdraw(uint _amount) external updateReward(msg.sender) {\r... */\n      pop\n      pop\n      jump\t// out\n        /* \"Staking.sol\":1874:2067  function getReward() external updateReward(msg.sender) {\r... */\n    tag_31:\n        /* \"Staking.sol\":1917:1927  msg.sender */\n      caller\n        /* \"Staking.sol\":1235:1251  rewardPerToken() */\n      tag_82\n        /* \"Staking.sol\":1235:1249  rewardPerToken */\n      tag_50\n        /* \"Staking.sol\":1235:1251  rewardPerToken() */\n      jump\t// in\n    tag_82:\n        /* \"Staking.sol\":1212:1232  rewardPerTokenStored */\n      0x04\n        /* \"Staking.sol\":1212:1251  rewardPerTokenStored = rewardPerToken() */\n      dup2\n      swap1\n      sstore\n      pop\n        /* \"Staking.sol\":1279:1294  block.timestamp */\n      timestamp\n        /* \"Staking.sol\":1262:1276  lastUpdateTime */\n      0x03\n        /* \"Staking.sol\":1262:1294  lastUpdateTime = block.timestamp */\n      dup2\n      swap1\n      sstore\n      pop\n        /* \"Staking.sol\":1326:1341  earned(account) */\n      tag_83\n        /* \"Staking.sol\":1333:1340  account */\n      dup2\n        /* \"Staking.sol\":1326:1332  earned */\n      tag_19\n        /* \"Staking.sol\":1326:1341  earned(account) */\n      jump\t// in\n    tag_83:\n        /* \"Staking.sol\":1307:1314  rewards */\n      0x06\n        /* \"Staking.sol\":1307:1323  rewards[account] */\n      0x00\n        /* \"Staking.sol\":1315:1322  account */\n      dup4\n        /* \"Staking.sol\":1307:1323  rewards[account] */\n      0xffffffffffffffffffffffffffffffffffffffff\n      and\n      0xffffffffffffffffffffffffffffffffffffffff\n      and\n      dup2\n      mstore\n      0x20\n      add\n      swap1\n      dup2\n      mstore\n      0x20\n      add\n      0x00\n      keccak256\n        /* \"Staking.sol\":1307:1341  rewards[account] = earned(account) */\n      dup2\n      swap1\n      sstore\n      pop\n        /* \"Staking.sol\":1386:1406  rewardPerTokenStored */\n      sload(0x04)\n        /* \"Staking.sol\":1352:1374  userRewardPerTokenPaid */\n      0x05\n        /* \"Staking.sol\":1352:1383  userRewardPerTokenPaid[account] */\n      0x00\n        /* \"Staking.sol\":1375:1382  account */\n      dup4\n        /* \"Staking.sol\":1352:1383  userRewardPerTokenPaid[account] */\n      0xffffffffffffffffffffffffffffffffffffffff\n      and\n      0xffffffffffffffffffffffffffffffffffffffff\n      and\n      dup2\n      mstore\n      0x20\n      add\n      swap1\n      dup2\n      mstore\n      0x20\n      add\n      0x00\n      keccak256\n        /* \"Staking.sol\":1352:1406  userRewardPerTokenPaid[account] = rewardPerTokenStored */\n      dup2\n      swap1\n      sstore\n      pop\n        /* \"Staking.sol\":1940:1951  uint reward */\n      0x00\n        /* \"Staking.sol\":1954:1961  rewards */\n      0x06\n        /* \"Staking.sol\":1954:1973  rewards[msg.sender] */\n      0x00\n        /* \"Staking.sol\":1962:1972  msg.sender */\n      caller\n        /* \"Staking.sol\":1954:1973  rewards[msg.sender] */\n      0xffffffffffffffffffffffffffffffffffffffff\n      and\n      0xffffffffffffffffffffffffffffffffffffffff\n      and\n      dup2\n      mstore\n      0x20\n      add\n      swap1\n      dup2\n      mstore\n      0x20\n      add\n      0x00\n      keccak256\n      sload\n        /* \"Staking.sol\":1940:1973  uint reward = rewards[msg.sender] */\n      swap1\n      pop\n        /* \"Staking.sol\":2006:2007  0 */\n      0x00\n        /* \"Staking.sol\":1984:1991  rewards */\n      0x06\n        /* \"Staking.sol\":1984:2003  rewards[msg.sender] */\n      0x00\n        /* \"Staking.sol\":1992:2002  msg.sender */\n      caller\n        /* \"Staking.sol\":1984:2003  rewards[msg.sender] */\n      0xffffffffffffffffffffffffffffffffffffffff\n      and\n      0xffffffffffffffffffffffffffffffffffffffff\n      and\n      dup2\n      mstore\n      0x20\n      add\n      swap1\n      dup2\n      mstore\n      0x20\n      add\n      0x00\n      keccak256\n        /* \"Staking.sol\":1984:2007  rewards[msg.sender] = 0 */\n      dup2\n      swap1\n      sstore\n      pop\n        /* \"Staking.sol\":2018:2030  rewardsToken */\n      0x00\n      dup1\n      sload\n      swap1\n      0x0100\n      exp\n      swap1\n      div\n      0xffffffffffffffffffffffffffffffffffffffff\n      and\n        /* \"Staking.sol\":2018:2039  rewardsToken.transfer */\n      0xffffffffffffffffffffffffffffffffffffffff\n      and\n      0xa9059cbb\n        /* \"Staking.sol\":2040:2050  msg.sender */\n      caller\n        /* \"Staking.sol\":2052:2058  reward */\n      dup4\n        /* \"Staking.sol\":2018:2059  rewardsToken.transfer(msg.sender, reward) */\n      mload(0x40)\n      dup4\n      0xffffffff\n      and\n      0xe0\n      shl\n      dup2\n      mstore\n      0x04\n      add\n      tag_85\n      swap3\n      swap2\n      swap1\n      tag_75\n      jump\t// in\n    tag_85:\n      0x20\n      mload(0x40)\n      dup1\n      dup4\n      sub\n      dup2\n      0x00\n      dup8\n      dup1\n      extcodesize\n      iszero\n      dup1\n      iszero\n      tag_86\n      jumpi\n      0x00\n      dup1\n      revert\n    tag_86:\n      pop\n      gas\n      call\n      iszero\n      dup1\n      iszero\n      tag_88\n      jumpi\n      returndatasize\n      0x00\n      dup1\n      returndatacopy\n      revert(0x00, returndatasize)\n    tag_88:\n      pop\n      pop\n      pop\n      pop\n      mload(0x40)\n      returndatasize\n      not(0x1f)\n      0x1f\n      dup3\n      add\n      and\n      dup3\n      add\n      dup1\n      0x40\n      mstore\n      pop\n      dup2\n      add\n      swap1\n      tag_89\n      swap2\n      swap1\n      tag_80\n      jump\t// in\n    tag_89:\n      pop\n        /* \"Staking.sol\":1929:2067  {\r... */\n      pop\n        /* \"Staking.sol\":1874:2067  function getReward() external updateReward(msg.sender) {\r... */\n      pop\n      jump\t// out\n        /* \"Staking.sol\":122:148  IERC20 public stakingToken */\n    tag_33:\n      0x01\n      0x00\n      swap1\n      sload\n      swap1\n      0x0100\n      exp\n      swap1\n      div\n      0xffffffffffffffffffffffffffffffffffffffff\n      and\n      dup2\n      jump\t// out\n        /* \"Staking.sol\":157:185  uint public rewardRate = 100 */\n    tag_37:\n      sload(0x02)\n      dup2\n      jump\t// out\n        /* \"Staking.sol\":266:320  mapping(address => uint) public userRewardPerTokenPaid */\n    tag_41:\n      mstore(0x20, 0x05)\n      dup1\n      0x00\n      mstore\n      keccak256(0x00, 0x40)\n      0x00\n      swap2\n      pop\n      swap1\n      pop\n      sload\n      dup2\n      jump\t// out\n        /* \"Staking.sol\":1434:1654  function stake(uint _amount) external updateReward(msg.sender) {\r... */\n    tag_45:\n        /* \"Staking.sol\":1485:1495  msg.sender */\n      caller\n        /* \"Staking.sol\":1235:1251  rewardPerToken() */\n      tag_91\n        /* \"Staking.sol\":1235:1249  rewardPerToken */\n      tag_50\n        /* \"Staking.sol\":1235:1251  rewardPerToken() */\n      jump\t// in\n    tag_91:\n        /* \"Staking.sol\":1212:1232  rewardPerTokenStored */\n      0x04\n        /* \"Staking.sol\":1212:1251  rewardPerTokenStored = rewardPerToken() */\n      dup2\n      swap1\n      sstore\n      pop\n        /* \"Staking.sol\":1279:1294  block.timestamp */\n      timestamp\n        /* \"Staking.sol\":1262:1276  lastUpdateTime */\n      0x03\n        /* \"Staking.sol\":1262:1294  lastUpdateTime = block.timestamp */\n      dup2\n      swap1\n      sstore\n      pop\n        /* \"Staking.sol\":1326:1341  earned(account) */\n      tag_92\n        /* \"Staking.sol\":1333:1340  account */\n      dup2\n        /* \"Staking.sol\":1326:1332  earned */\n      tag_19\n        /* \"Staking.sol\":1326:1341  earned(account) */\n      jump\t// in\n    tag_92:\n        /* \"Staking.sol\":1307:1314  rewards */\n      0x06\n        /* \"Staking.sol\":1307:1323  rewards[account] */\n      0x00\n        /* \"Staking.sol\":1315:1322  account */\n      dup4\n        /* \"Staking.sol\":1307:1323  rewards[account] */\n      0xffffffffffffffffffffffffffffffffffffffff\n      and\n      0xffffffffffffffffffffffffffffffffffffffff\n      and\n      dup2\n      mstore\n      0x20\n      add\n      swap1\n      dup2\n      mstore\n      0x20\n      add\n      0x00\n      keccak256\n        /* \"Staking.sol\":1307:1341  rewards[account] = earned(account) */\n      dup2\n      swap1\n      sstore\n      pop\n        /* \"Staking.sol\":1386:1406  rewardPerTokenStored */\n      sload(0x04)\n        /* \"Staking.sol\":1352:1374  userRewardPerTokenPaid */\n      0x05\n        /* \"Staking.sol\":1352:1383  userRewardPerTokenPaid[account] */\n      0x00\n        /* \"Staking.sol\":1375:1382  account */\n      dup4\n        /* \"Staking.sol\":1352:1383  userRewardPerTokenPaid[account] */\n      0xffffffffffffffffffffffffffffffffffffffff\n      and\n      0xffffffffffffffffffffffffffffffffffffffff\n      and\n      dup2\n      mstore\n      0x20\n      add\n      swap1\n      dup2\n      mstore\n      0x20\n      add\n      0x00\n      keccak256\n        /* \"Staking.sol\":1352:1406  userRewardPerTokenPaid[account] = rewardPerTokenStored */\n      dup2\n      swap1\n      sstore\n      pop\n        /* \"Staking.sol\":1524:1531  _amount */\n      dup2\n        /* \"Staking.sol\":1508:1520  _totalSupply */\n      0x07\n      0x00\n        /* \"Staking.sol\":1508:1531  _totalSupply += _amount */\n      dup3\n      dup3\n      sload\n      tag_94\n      swap2\n      swap1\n      tag_67\n      jump\t// in\n    tag_94:\n      swap3\n      pop\n      pop\n      dup2\n      swap1\n      sstore\n      pop\n        /* \"Staking.sol\":1567:1574  _amount */\n      dup2\n        /* \"Staking.sol\":1542:1551  _balances */\n      0x08\n        /* \"Staking.sol\":1542:1563  _balances[msg.sender] */\n      0x00\n        /* \"Staking.sol\":1552:1562  msg.sender */\n      caller\n        /* \"Staking.sol\":1542:1563  _balances[msg.sender] */\n      0xffffffffffffffffffffffffffffffffffffffff\n      and\n      0xffffffffffffffffffffffffffffffffffffffff\n      and\n      dup2\n      mstore\n      0x20\n      add\n      swap1\n      dup2\n      mstore\n      0x20\n      add\n      0x00\n      keccak256\n      0x00\n        /* \"Staking.sol\":1542:1574  _balances[msg.sender] += _amount */\n      dup3\n      dup3\n      sload\n      tag_95\n      swap2\n      swap1\n      tag_67\n      jump\t// in\n    tag_95:\n      swap3\n      pop\n      pop\n      dup2\n      swap1\n      sstore\n      pop\n        /* \"Staking.sol\":1585:1597  stakingToken */\n      0x01\n      0x00\n      swap1\n      sload\n      swap1\n      0x0100\n      exp\n      swap1\n      div\n      0xffffffffffffffffffffffffffffffffffffffff\n      and\n        /* \"Staking.sol\":1585:1610  stakingToken.transferFrom */\n      0xffffffffffffffffffffffffffffffffffffffff\n      and\n      0x23b872dd\n        /* \"Staking.sol\":1611:1621  msg.sender */\n      caller\n        /* \"Staking.sol\":1631:1635  this */\n      address\n        /* \"Staking.sol\":1638:1645  _amount */\n      dup6\n        /* \"Staking.sol\":1585:1646  stakingToken.transferFrom(msg.sender, address(this), _amount) */\n      mload(0x40)\n      dup5\n      0xffffffff\n      and\n      0xe0\n      shl\n      dup2\n      mstore\n      0x04\n      add\n      tag_96\n      swap4\n      swap3\n      swap2\n      swap1\n      tag_97\n      jump\t// in\n    tag_96:\n      0x20\n      mload(0x40)\n      dup1\n      dup4\n      sub\n      dup2\n      0x00\n      dup8\n      dup1\n      extcodesize\n      iszero\n      dup1\n      iszero\n      tag_98\n      jumpi\n      0x00\n      dup1\n      revert\n    tag_98:\n      pop\n      gas\n      call\n      iszero\n      dup1\n      iszero\n      tag_100\n      jumpi\n      returndatasize\n      0x00\n      dup1\n      returndatacopy\n      revert(0x00, returndatasize)\n    tag_100:\n      pop\n      pop\n      pop\n      pop\n      mload(0x40)\n      returndatasize\n      not(0x1f)\n      0x1f\n      dup3\n      add\n      and\n      dup3\n      add\n      dup1\n      0x40\n      mstore\n      pop\n      dup2\n      add\n      swap1\n      tag_101\n      swap2\n      swap1\n      tag_80\n      jump\t// in\n    tag_101:\n      pop\n        /* \"Staking.sol\":1434:1654  function stake(uint _amount) external updateReward(msg.sender) {\r... */\n      pop\n      pop\n      jump\t// out\n        /* \"Staking.sol\":192:218  uint public lastUpdateTime */\n    tag_47:\n      sload(0x03)\n      dup2\n      jump\t// out\n        /* \"Staking.sol\":626:914  function rewardPerToken() public view returns (uint) {\r... */\n    tag_50:\n        /* \"Staking.sol\":673:677  uint */\n      0x00\n        /* \"Staking.sol\":710:711  0 */\n      dup1\n        /* \"Staking.sol\":694:706  _totalSupply */\n      sload(0x07)\n        /* \"Staking.sol\":694:711  _totalSupply == 0 */\n      eq\n        /* \"Staking.sol\":690:767  if (_totalSupply == 0) {\r... */\n      iszero\n      tag_103\n      jumpi\n        /* \"Staking.sol\":735:755  rewardPerTokenStored */\n      sload(0x04)\n        /* \"Staking.sol\":728:755  return rewardPerTokenStored */\n      swap1\n      pop\n      jump(tag_102)\n        /* \"Staking.sol\":690:767  if (_totalSupply == 0) {\r... */\n    tag_103:\n        /* \"Staking.sol\":893:905  _totalSupply */\n      sload(0x07)\n        /* \"Staking.sol\":885:889  1e18 */\n      0x0de0b6b3a7640000\n        /* \"Staking.sol\":872:882  rewardRate */\n      sload(0x02)\n        /* \"Staking.sol\":854:868  lastUpdateTime */\n      sload(0x03)\n        /* \"Staking.sol\":836:851  block.timestamp */\n      timestamp\n        /* \"Staking.sol\":836:868  block.timestamp - lastUpdateTime */\n      tag_104\n      swap2\n      swap1\n      tag_61\n      jump\t// in\n    tag_104:\n        /* \"Staking.sol\":835:882  (block.timestamp - lastUpdateTime) * rewardRate */\n      tag_105\n      swap2\n      swap1\n      tag_63\n      jump\t// in\n    tag_105:\n        /* \"Staking.sol\":835:889  (block.timestamp - lastUpdateTime) * rewardRate * 1e18 */\n      tag_106\n      swap2\n      swap1\n      tag_63\n      jump\t// in\n    tag_106:\n        /* \"Staking.sol\":834:905  ((block.timestamp - lastUpdateTime) * rewardRate * 1e18) / _totalSupply */\n      tag_107\n      swap2\n      swap1\n      tag_65\n      jump\t// in\n    tag_107:\n        /* \"Staking.sol\":797:817  rewardPerTokenStored */\n      sload(0x04)\n        /* \"Staking.sol\":797:906  rewardPerTokenStored +\r... */\n      tag_108\n      swap2\n      swap1\n      tag_67\n      jump\t// in\n    tag_108:\n        /* \"Staking.sol\":777:906  return\r... */\n      swap1\n      pop\n        /* \"Staking.sol\":626:914  function rewardPerToken() public view returns (uint) {\r... */\n    tag_102:\n      swap1\n      jump\t// out\n        /* \"Staking.sol\":89:115  IERC20 public rewardsToken */\n    tag_53:\n      0x00\n      dup1\n      sload\n      swap1\n      0x0100\n      exp\n      swap1\n      div\n      0xffffffffffffffffffffffffffffffffffffffff\n      and\n      dup2\n      jump\t// out\n        /* \"Staking.sol\":225:257  uint public rewardPerTokenStored */\n    tag_56:\n      sload(0x04)\n      dup2\n      jump\t// out\n        /* \"#utility.yul\":7:146   */\n    tag_110:\n        /* \"#utility.yul\":53:58   */\n      0x00\n        /* \"#utility.yul\":91:97   */\n      dup2\n        /* \"#utility.yul\":78:98   */\n      calldataload\n        /* \"#utility.yul\":69:98   */\n      swap1\n      pop\n        /* \"#utility.yul\":107:140   */\n      tag_112\n        /* \"#utility.yul\":134:139   */\n      dup2\n        /* \"#utility.yul\":107:140   */\n      tag_113\n      jump\t// in\n    tag_112:\n        /* \"#utility.yul\":7:146   */\n      swap3\n      swap2\n      pop\n      pop\n      jump\t// out\n        /* \"#utility.yul\":152:289   */\n    tag_114:\n        /* \"#utility.yul\":206:211   */\n      0x00\n        /* \"#utility.yul\":237:243   */\n      dup2\n        /* \"#utility.yul\":231:244   */\n      mload\n        /* \"#utility.yul\":222:244   */\n      swap1\n      pop\n        /* \"#utility.yul\":253:283   */\n      tag_116\n        /* \"#utility.yul\":277:282   */\n      dup2\n        /* \"#utility.yul\":253:283   */\n      tag_117\n      jump\t// in\n    tag_116:\n        /* \"#utility.yul\":152:289   */\n      swap3\n      swap2\n      pop\n      pop\n      jump\t// out\n        /* \"#utility.yul\":295:434   */\n    tag_118:\n        /* \"#utility.yul\":341:346   */\n      0x00\n        /* \"#utility.yul\":379:385   */\n      dup2\n        /* \"#utility.yul\":366:386   */\n      calldataload\n        /* \"#utility.yul\":357:386   */\n      swap1\n      pop\n        /* \"#utility.yul\":395:428   */\n      tag_120\n        /* \"#utility.yul\":422:427   */\n      dup2\n        /* \"#utility.yul\":395:428   */\n      tag_121\n      jump\t// in\n    tag_120:\n        /* \"#utility.yul\":295:434   */\n      swap3\n      swap2\n      pop\n      pop\n      jump\t// out\n        /* \"#utility.yul\":440:769   */\n    tag_18:\n        /* \"#utility.yul\":499:505   */\n      0x00\n        /* \"#utility.yul\":548:550   */\n      0x20\n        /* \"#utility.yul\":536:545   */\n      dup3\n        /* \"#utility.yul\":527:534   */\n      dup5\n        /* \"#utility.yul\":523:546   */\n      sub\n        /* \"#utility.yul\":519:551   */\n      slt\n        /* \"#utility.yul\":516:635   */\n      iszero\n      tag_123\n      jumpi\n        /* \"#utility.yul\":554:633   */\n      tag_124\n      tag_125\n      jump\t// in\n    tag_124:\n        /* \"#utility.yul\":516:635   */\n    tag_123:\n        /* \"#utility.yul\":674:675   */\n      0x00\n        /* \"#utility.yul\":699:752   */\n      tag_126\n        /* \"#utility.yul\":744:751   */\n      dup5\n        /* \"#utility.yul\":735:741   */\n      dup3\n        /* \"#utility.yul\":724:733   */\n      dup6\n        /* \"#utility.yul\":720:742   */\n      add\n        /* \"#utility.yul\":699:752   */\n      tag_110\n      jump\t// in\n    tag_126:\n        /* \"#utility.yul\":689:752   */\n      swap2\n      pop\n        /* \"#utility.yul\":645:762   */\n      pop\n        /* \"#utility.yul\":440:769   */\n      swap3\n      swap2\n      pop\n      pop\n      jump\t// out\n        /* \"#utility.yul\":775:1120   */\n    tag_80:\n        /* \"#utility.yul\":842:848   */\n      0x00\n        /* \"#utility.yul\":891:893   */\n      0x20\n        /* \"#utility.yul\":879:888   */\n      dup3\n        /* \"#utility.yul\":870:877   */\n      dup5\n        /* \"#utility.yul\":866:889   */\n      sub\n        /* \"#utility.yul\":862:894   */\n      slt\n        /* \"#utility.yul\":859:978   */\n      iszero\n      tag_128\n      jumpi\n        /* \"#utility.yul\":897:976   */\n      tag_129\n      tag_125\n      jump\t// in\n    tag_129:\n        /* \"#utility.yul\":859:978   */\n    tag_128:\n        /* \"#utility.yul\":1017:1018   */\n      0x00\n        /* \"#utility.yul\":1042:1103   */\n      tag_130\n        /* \"#utility.yul\":1095:1102   */\n      dup5\n        /* \"#utility.yul\":1086:1092   */\n      dup3\n        /* \"#utility.yul\":1075:1084   */\n      dup6\n        /* \"#utility.yul\":1071:1093   */\n      add\n        /* \"#utility.yul\":1042:1103   */\n      tag_114\n      jump\t// in\n    tag_130:\n        /* \"#utility.yul\":1032:1103   */\n      swap2\n      pop\n        /* \"#utility.yul\":988:1113   */\n      pop\n        /* \"#utility.yul\":775:1120   */\n      swap3\n      swap2\n      pop\n      pop\n      jump\t// out\n        /* \"#utility.yul\":1126:1455   */\n    tag_28:\n        /* \"#utility.yul\":1185:1191   */\n      0x00\n        /* \"#utility.yul\":1234:1236   */\n      0x20\n        /* \"#utility.yul\":1222:1231   */\n      dup3\n        /* \"#utility.yul\":1213:1220   */\n      dup5\n        /* \"#utility.yul\":1209:1232   */\n      sub\n        /* \"#utility.yul\":1205:1237   */\n      slt\n        /* \"#utility.yul\":1202:1321   */\n      iszero\n      tag_132\n      jumpi\n        /* \"#utility.yul\":1240:1319   */\n      tag_133\n      tag_125\n      jump\t// in\n    tag_133:\n        /* \"#utility.yul\":1202:1321   */\n    tag_132:\n        /* \"#utility.yul\":1360:1361   */\n      0x00\n        /* \"#utility.yul\":1385:1438   */\n      tag_134\n        /* \"#utility.yul\":1430:1437   */\n      dup5\n        /* \"#utility.yul\":1421:1427   */\n      dup3\n        /* \"#utility.yul\":1410:1419   */\n      dup6\n        /* \"#utility.yul\":1406:1428   */\n      add\n        /* \"#utility.yul\":1385:1438   */\n      tag_118\n      jump\t// in\n    tag_134:\n        /* \"#utility.yul\":1375:1438   */\n      swap2\n      pop\n        /* \"#utility.yul\":1331:1448   */\n      pop\n        /* \"#utility.yul\":1126:1455   */\n      swap3\n      swap2\n      pop\n      pop\n      jump\t// out\n        /* \"#utility.yul\":1461:1579   */\n    tag_135:\n        /* \"#utility.yul\":1548:1572   */\n      tag_137\n        /* \"#utility.yul\":1566:1571   */\n      dup2\n        /* \"#utility.yul\":1548:1572   */\n      tag_138\n      jump\t// in\n    tag_137:\n        /* \"#utility.yul\":1543:1546   */\n      dup3\n        /* \"#utility.yul\":1536:1573   */\n      mstore\n        /* \"#utility.yul\":1461:1579   */\n      pop\n      pop\n      jump\t// out\n        /* \"#utility.yul\":1585:1744   */\n    tag_139:\n        /* \"#utility.yul\":1686:1737   */\n      tag_141\n        /* \"#utility.yul\":1731:1736   */\n      dup2\n        /* \"#utility.yul\":1686:1737   */\n      tag_142\n      jump\t// in\n    tag_141:\n        /* \"#utility.yul\":1681:1684   */\n      dup3\n        /* \"#utility.yul\":1674:1738   */\n      mstore\n        /* \"#utility.yul\":1585:1744   */\n      pop\n      pop\n      jump\t// out\n        /* \"#utility.yul\":1750:1868   */\n    tag_143:\n        /* \"#utility.yul\":1837:1861   */\n      tag_145\n        /* \"#utility.yul\":1855:1860   */\n      dup2\n        /* \"#utility.yul\":1837:1861   */\n      tag_146\n      jump\t// in\n    tag_145:\n        /* \"#utility.yul\":1832:1835   */\n      dup3\n        /* \"#utility.yul\":1825:1862   */\n      mstore\n        /* \"#utility.yul\":1750:1868   */\n      pop\n      pop\n      jump\t// out\n        /* \"#utility.yul\":1874:2316   */\n    tag_97:\n        /* \"#utility.yul\":2023:2027   */\n      0x00\n        /* \"#utility.yul\":2061:2063   */\n      0x60\n        /* \"#utility.yul\":2050:2059   */\n      dup3\n        /* \"#utility.yul\":2046:2064   */\n      add\n        /* \"#utility.yul\":2038:2064   */\n      swap1\n      pop\n        /* \"#utility.yul\":2074:2145   */\n      tag_148\n        /* \"#utility.yul\":2142:2143   */\n      0x00\n        /* \"#utility.yul\":2131:2140   */\n      dup4\n        /* \"#utility.yul\":2127:2144   */\n      add\n        /* \"#utility.yul\":2118:2124   */\n      dup7\n        /* \"#utility.yul\":2074:2145   */\n      tag_135\n      jump\t// in\n    tag_148:\n        /* \"#utility.yul\":2155:2227   */\n      tag_149\n        /* \"#utility.yul\":2223:2225   */\n      0x20\n        /* \"#utility.yul\":2212:2221   */\n      dup4\n        /* \"#utility.yul\":2208:2226   */\n      add\n        /* \"#utility.yul\":2199:2205   */\n      dup6\n        /* \"#utility.yul\":2155:2227   */\n      tag_135\n      jump\t// in\n    tag_149:\n        /* \"#utility.yul\":2237:2309   */\n      tag_150\n        /* \"#utility.yul\":2305:2307   */\n      0x40\n        /* \"#utility.yul\":2294:2303   */\n      dup4\n        /* \"#utility.yul\":2290:2308   */\n      add\n        /* \"#utility.yul\":2281:2287   */\n      dup5\n        /* \"#utility.yul\":2237:2309   */\n      tag_143\n      jump\t// in\n    tag_150:\n        /* \"#utility.yul\":1874:2316   */\n      swap5\n      swap4\n      pop\n      pop\n      pop\n      pop\n      jump\t// out\n        /* \"#utility.yul\":2322:2654   */\n    tag_75:\n        /* \"#utility.yul\":2443:2447   */\n      0x00\n        /* \"#utility.yul\":2481:2483   */\n      0x40\n        /* \"#utility.yul\":2470:2479   */\n      dup3\n        /* \"#utility.yul\":2466:2484   */\n      add\n        /* \"#utility.yul\":2458:2484   */\n      swap1\n      pop\n        /* \"#utility.yul\":2494:2565   */\n      tag_152\n        /* \"#utility.yul\":2562:2563   */\n      0x00\n        /* \"#utility.yul\":2551:2560   */\n      dup4\n        /* \"#utility.yul\":2547:2564   */\n      add\n        /* \"#utility.yul\":2538:2544   */\n      dup6\n        /* \"#utility.yul\":2494:2565   */\n      tag_135\n      jump\t// in\n    tag_152:\n        /* \"#utility.yul\":2575:2647   */\n      tag_153\n        /* \"#utility.yul\":2643:2645   */\n      0x20\n        /* \"#utility.yul\":2632:2641   */\n      dup4\n        /* \"#utility.yul\":2628:2646   */\n      add\n        /* \"#utility.yul\":2619:2625   */\n      dup5\n        /* \"#utility.yul\":2575:2647   */\n      tag_143\n      jump\t// in\n    tag_153:\n        /* \"#utility.yul\":2322:2654   */\n      swap4\n      swap3\n      pop\n      pop\n      pop\n      jump\t// out\n        /* \"#utility.yul\":2660:2910   */\n    tag_35:\n        /* \"#utility.yul\":2767:2771   */\n      0x00\n        /* \"#utility.yul\":2805:2807   */\n      0x20\n        /* \"#utility.yul\":2794:2803   */\n      dup3\n        /* \"#utility.yul\":2790:2808   */\n      add\n        /* \"#utility.yul\":2782:2808   */\n      swap1\n      pop\n        /* \"#utility.yul\":2818:2903   */\n      tag_155\n        /* \"#utility.yul\":2900:2901   */\n      0x00\n        /* \"#utility.yul\":2889:2898   */\n      dup4\n        /* \"#utility.yul\":2885:2902   */\n      add\n        /* \"#utility.yul\":2876:2882   */\n      dup5\n        /* \"#utility.yul\":2818:2903   */\n      tag_139\n      jump\t// in\n    tag_155:\n        /* \"#utility.yul\":2660:2910   */\n      swap3\n      swap2\n      pop\n      pop\n      jump\t// out\n        /* \"#utility.yul\":2916:3138   */\n    tag_21:\n        /* \"#utility.yul\":3009:3013   */\n      0x00\n        /* \"#utility.yul\":3047:3049   */\n      0x20\n        /* \"#utility.yul\":3036:3045   */\n      dup3\n        /* \"#utility.yul\":3032:3050   */\n      add\n        /* \"#utility.yul\":3024:3050   */\n      swap1\n      pop\n        /* \"#utility.yul\":3060:3131   */\n      tag_157\n        /* \"#utility.yul\":3128:3129   */\n      0x00\n        /* \"#utility.yul\":3117:3126   */\n      dup4\n        /* \"#utility.yul\":3113:3130   */\n      add\n        /* \"#utility.yul\":3104:3110   */\n      dup5\n        /* \"#utility.yul\":3060:3131   */\n      tag_143\n      jump\t// in\n    tag_157:\n        /* \"#utility.yul\":2916:3138   */\n      swap3\n      swap2\n      pop\n      pop\n      jump\t// out\n        /* \"#utility.yul\":3225:3530   */\n    tag_67:\n        /* \"#utility.yul\":3265:3268   */\n      0x00\n        /* \"#utility.yul\":3284:3304   */\n      tag_161\n        /* \"#utility.yul\":3302:3303   */\n      dup3\n        /* \"#utility.yul\":3284:3304   */\n      tag_146\n      jump\t// in\n    tag_161:\n        /* \"#utility.yul\":3279:3304   */\n      swap2\n      pop\n        /* \"#utility.yul\":3318:3338   */\n      tag_162\n        /* \"#utility.yul\":3336:3337   */\n      dup4\n        /* \"#utility.yul\":3318:3338   */\n      tag_146\n      jump\t// in\n    tag_162:\n        /* \"#utility.yul\":3313:3338   */\n      swap3\n      pop\n        /* \"#utility.yul\":3472:3473   */\n      dup3\n        /* \"#utility.yul\":3404:3470   */\n      0xffffffffffffffffffffffffffffffffffffffffffffffffffffffffffffffff\n        /* \"#utility.yul\":3400:3474   */\n      sub\n        /* \"#utility.yul\":3397:3398   */\n      dup3\n        /* \"#utility.yul\":3394:3475   */\n      gt\n        /* \"#utility.yul\":3391:3498   */\n      iszero\n      tag_163\n      jumpi\n        /* \"#utility.yul\":3478:3496   */\n      tag_164\n      tag_165\n      jump\t// in\n    tag_164:\n        /* \"#utility.yul\":3391:3498   */\n    tag_163:\n        /* \"#utility.yul\":3522:3523   */\n      dup3\n        /* \"#utility.yul\":3519:3520   */\n      dup3\n        /* \"#utility.yul\":3515:3524   */\n      add\n        /* \"#utility.yul\":3508:3524   */\n      swap1\n      pop\n        /* \"#utility.yul\":3225:3530   */\n      swap3\n      swap2\n      pop\n      pop\n      jump\t// out\n        /* \"#utility.yul\":3536:3721   */\n    tag_65:\n        /* \"#utility.yul\":3576:3577   */\n      0x00\n        /* \"#utility.yul\":3593:3613   */\n      tag_167\n        /* \"#utility.yul\":3611:3612   */\n      dup3\n        /* \"#utility.yul\":3593:3613   */\n      tag_146\n      jump\t// in\n    tag_167:\n        /* \"#utility.yul\":3588:3613   */\n      swap2\n      pop\n        /* \"#utility.yul\":3627:3647   */\n      tag_168\n        /* \"#utility.yul\":3645:3646   */\n      dup4\n        /* \"#utility.yul\":3627:3647   */\n      tag_146\n      jump\t// in\n    tag_168:\n        /* \"#utility.yul\":3622:3647   */\n      swap3\n      pop\n        /* \"#utility.yul\":3666:3667   */\n      dup3\n        /* \"#utility.yul\":3656:3691   */\n      tag_169\n      jumpi\n        /* \"#utility.yul\":3671:3689   */\n      tag_170\n      tag_171\n      jump\t// in\n    tag_170:\n        /* \"#utility.yul\":3656:3691   */\n    tag_169:\n        /* \"#utility.yul\":3713:3714   */\n      dup3\n        /* \"#utility.yul\":3710:3711   */\n      dup3\n        /* \"#utility.yul\":3706:3715   */\n      div\n        /* \"#utility.yul\":3701:3715   */\n      swap1\n      pop\n        /* \"#utility.yul\":3536:3721   */\n      swap3\n      swap2\n      pop\n      pop\n      jump\t// out\n        /* \"#utility.yul\":3727:4075   */\n    tag_63:\n        /* \"#utility.yul\":3767:3774   */\n      0x00\n        /* \"#utility.yul\":3790:3810   */\n      tag_173\n        /* \"#utility.yul\":3808:3809   */\n      dup3\n        /* \"#utility.yul\":3790:3810   */\n      tag_146\n      jump\t// in\n    tag_173:\n        /* \"#utility.yul\":3785:3810   */\n      swap2\n      pop\n        /* \"#utility.yul\":3824:3844   */\n      tag_174\n        /* \"#utility.yul\":3842:3843   */\n      dup4\n        /* \"#utility.yul\":3824:3844   */\n      tag_146\n      jump\t// in\n    tag_174:\n        /* \"#utility.yul\":3819:3844   */\n      swap3\n      pop\n        /* \"#utility.yul\":4012:4013   */\n      dup2\n        /* \"#utility.yul\":3944:4010   */\n      0xffffffffffffffffffffffffffffffffffffffffffffffffffffffffffffffff\n        /* \"#utility.yul\":3940:4014   */\n      div\n        /* \"#utility.yul\":3937:3938   */\n      dup4\n        /* \"#utility.yul\":3934:4015   */\n      gt\n        /* \"#utility.yul\":3929:3930   */\n      dup3\n        /* \"#utility.yul\":3922:3931   */\n      iszero\n        /* \"#utility.yul\":3915:3932   */\n      iszero\n        /* \"#utility.yul\":3911:4016   */\n      and\n        /* \"#utility.yul\":3908:4039   */\n      iszero\n      tag_175\n      jumpi\n        /* \"#utility.yul\":4019:4037   */\n      tag_176\n      tag_165\n      jump\t// in\n    tag_176:\n        /* \"#utility.yul\":3908:4039   */\n    tag_175:\n        /* \"#utility.yul\":4067:4068   */\n      dup3\n        /* \"#utility.yul\":4064:4065   */\n      dup3\n        /* \"#utility.yul\":4060:4069   */\n      mul\n        /* \"#utility.yul\":4049:4069   */\n      swap1\n      pop\n        /* \"#utility.yul\":3727:4075   */\n      swap3\n      swap2\n      pop\n      pop\n      jump\t// out\n        /* \"#utility.yul\":4081:4272   */\n    tag_61:\n        /* \"#utility.yul\":4121:4125   */\n      0x00\n        /* \"#utility.yul\":4141:4161   */\n      tag_178\n        /* \"#utility.yul\":4159:4160   */\n      dup3\n        /* \"#utility.yul\":4141:4161   */\n      tag_146\n      jump\t// in\n    tag_178:\n        /* \"#utility.yul\":4136:4161   */\n      swap2\n      pop\n        /* \"#utility.yul\":4175:4195   */\n      tag_179\n        /* \"#utility.yul\":4193:4194   */\n      dup4\n        /* \"#utility.yul\":4175:4195   */\n      tag_146\n      jump\t// in\n    tag_179:\n        /* \"#utility.yul\":4170:4195   */\n      swap3\n      pop\n        /* \"#utility.yul\":4214:4215   */\n      dup3\n        /* \"#utility.yul\":4211:4212   */\n      dup3\n        /* \"#utility.yul\":4208:4216   */\n      lt\n        /* \"#utility.yul\":4205:4239   */\n      iszero\n      tag_180\n      jumpi\n        /* \"#utility.yul\":4219:4237   */\n      tag_181\n      tag_165\n      jump\t// in\n    tag_181:\n        /* \"#utility.yul\":4205:4239   */\n    tag_180:\n        /* \"#utility.yul\":4264:4265   */\n      dup3\n        /* \"#utility.yul\":4261:4262   */\n      dup3\n        /* \"#utility.yul\":4257:4266   */\n      sub\n        /* \"#utility.yul\":4249:4266   */\n      swap1\n      pop\n        /* \"#utility.yul\":4081:4272   */\n      swap3\n      swap2\n      pop\n      pop\n      jump\t// out\n        /* \"#utility.yul\":4278:4374   */\n    tag_138:\n        /* \"#utility.yul\":4315:4322   */\n      0x00\n        /* \"#utility.yul\":4344:4368   */\n      tag_183\n        /* \"#utility.yul\":4362:4367   */\n      dup3\n        /* \"#utility.yul\":4344:4368   */\n      tag_184\n      jump\t// in\n    tag_183:\n        /* \"#utility.yul\":4333:4368   */\n      swap1\n      pop\n        /* \"#utility.yul\":4278:4374   */\n      swap2\n      swap1\n      pop\n      jump\t// out\n        /* \"#utility.yul\":4380:4470   */\n    tag_185:\n        /* \"#utility.yul\":4414:4421   */\n      0x00\n        /* \"#utility.yul\":4457:4462   */\n      dup2\n        /* \"#utility.yul\":4450:4463   */\n      iszero\n        /* \"#utility.yul\":4443:4464   */\n      iszero\n        /* \"#utility.yul\":4432:4464   */\n      swap1\n      pop\n        /* \"#utility.yul\":4380:4470   */\n      swap2\n      swap1\n      pop\n      jump\t// out\n        /* \"#utility.yul\":4476:4602   */\n    tag_184:\n        /* \"#utility.yul\":4513:4520   */\n      0x00\n        /* \"#utility.yul\":4553:4595   */\n      0xffffffffffffffffffffffffffffffffffffffff\n        /* \"#utility.yul\":4546:4551   */\n      dup3\n        /* \"#utility.yul\":4542:4596   */\n      and\n        /* \"#utility.yul\":4531:4596   */\n      swap1\n      pop\n        /* \"#utility.yul\":4476:4602   */\n      swap2\n      swap1\n      pop\n      jump\t// out\n        /* \"#utility.yul\":4608:4685   */\n    tag_146:\n        /* \"#utility.yul\":4645:4652   */\n      0x00\n        /* \"#utility.yul\":4674:4679   */\n      dup2\n        /* \"#utility.yul\":4663:4679   */\n      swap1\n      pop\n        /* \"#utility.yul\":4608:4685   */\n      swap2\n      swap1\n      pop\n      jump\t// out\n        /* \"#utility.yul\":4691:4831   */\n    tag_142:\n        /* \"#utility.yul\":4755:4764   */\n      0x00\n        /* \"#utility.yul\":4788:4825   */\n      tag_190\n        /* \"#utility.yul\":4819:4824   */\n      dup3\n        /* \"#utility.yul\":4788:4825   */\n      tag_191\n      jump\t// in\n    tag_190:\n        /* \"#utility.yul\":4775:4825   */\n      swap1\n      pop\n        /* \"#utility.yul\":4691:4831   */\n      swap2\n      swap1\n      pop\n      jump\t// out\n        /* \"#utility.yul\":4837:4963   */\n    tag_191:\n        /* \"#utility.yul\":4887:4896   */\n      0x00\n        /* \"#utility.yul\":4920:4957   */\n      tag_193\n        /* \"#utility.yul\":4951:4956   */\n      dup3\n        /* \"#utility.yul\":4920:4957   */\n      tag_194\n      jump\t// in\n    tag_193:\n        /* \"#utility.yul\":4907:4957   */\n      swap1\n      pop\n        /* \"#utility.yul\":4837:4963   */\n      swap2\n      swap1\n      pop\n      jump\t// out\n        /* \"#utility.yul\":4969:5082   */\n    tag_194:\n        /* \"#utility.yul\":5019:5028   */\n      0x00\n        /* \"#utility.yul\":5052:5076   */\n      tag_196\n        /* \"#utility.yul\":5070:5075   */\n      dup3\n        /* \"#utility.yul\":5052:5076   */\n      tag_184\n      jump\t// in\n    tag_196:\n        /* \"#utility.yul\":5039:5076   */\n      swap1\n      pop\n        /* \"#utility.yul\":4969:5082   */\n      swap2\n      swap1\n      pop\n      jump\t// out\n        /* \"#utility.yul\":5088:5268   */\n    tag_165:\n        /* \"#utility.yul\":5136:5213   */\n      0x4e487b7100000000000000000000000000000000000000000000000000000000\n        /* \"#utility.yul\":5133:5134   */\n      0x00\n        /* \"#utility.yul\":5126:5214   */\n      mstore\n        /* \"#utility.yul\":5233:5237   */\n      0x11\n        /* \"#utility.yul\":5230:5231   */\n      0x04\n        /* \"#utility.yul\":5223:5238   */\n      mstore\n        /* \"#utility.yul\":5257:5261   */\n      0x24\n        /* \"#utility.yul\":5254:5255   */\n      0x00\n        /* \"#utility.yul\":5247:5262   */\n      revert\n        /* \"#utility.yul\":5274:5454   */\n    tag_171:\n        /* \"#utility.yul\":5322:5399   */\n      0x4e487b7100000000000000000000000000000000000000000000000000000000\n        /* \"#utility.yul\":5319:5320   */\n      0x00\n        /* \"#utility.yul\":5312:5400   */\n      mstore\n        /* \"#utility.yul\":5419:5423   */\n      0x12\n        /* \"#utility.yul\":5416:5417   */\n      0x04\n        /* \"#utility.yul\":5409:5424   */\n      mstore\n        /* \"#utility.yul\":5443:5447   */\n      0x24\n        /* \"#utility.yul\":5440:5441   */\n      0x00\n        /* \"#utility.yul\":5433:5448   */\n      revert\n        /* \"#utility.yul\":5583:5700   */\n    tag_125:\n        /* \"#utility.yul\":5692:5693   */\n      0x00\n        /* \"#utility.yul\":5689:5690   */\n      dup1\n        /* \"#utility.yul\":5682:5694   */\n      revert\n        /* \"#utility.yul\":5706:5828   */\n    tag_113:\n        /* \"#utility.yul\":5779:5803   */\n      tag_203\n        /* \"#utility.yul\":5797:5802   */\n      dup2\n        /* \"#utility.yul\":5779:5803   */\n      tag_138\n      jump\t// in\n    tag_203:\n        /* \"#utility.yul\":5772:5777   */\n      dup2\n        /* \"#utility.yul\":5769:5804   */\n      eq\n        /* \"#utility.yul\":5759:5822   */\n      tag_204\n      jumpi\n        /* \"#utility.yul\":5818:5819   */\n      0x00\n        /* \"#utility.yul\":5815:5816   */\n      dup1\n        /* \"#utility.yul\":5808:5820   */\n      revert\n        /* \"#utility.yul\":5759:5822   */\n    tag_204:\n        /* \"#utility.yul\":5706:5828   */\n      pop\n      jump\t// out\n        /* \"#utility.yul\":5834:5950   */\n    tag_117:\n        /* \"#utility.yul\":5904:5925   */\n      tag_206\n        /* \"#utility.yul\":5919:5924   */\n      dup2\n        /* \"#utility.yul\":5904:5925   */\n      tag_185\n      jump\t// in\n    tag_206:\n        /* \"#utility.yul\":5897:5902   */\n      dup2\n        /* \"#utility.yul\":5894:5926   */\n      eq\n        /* \"#utility.yul\":5884:5944   */\n      tag_207\n      jumpi\n        /* \"#utility.yul\":5940:5941   */\n      0x00\n        /* \"#utility.yul\":5937:5938   */\n      dup1\n        /* \"#utility.yul\":5930:5942   */\n      revert\n        /* \"#utility.yul\":5884:5944   */\n    tag_207:\n        /* \"#utility.yul\":5834:5950   */\n      pop\n      jump\t// out\n        /* \"#utility.yul\":5956:6078   */\n    tag_121:\n        /* \"#utility.yul\":6029:6053   */\n      tag_209\n        /* \"#utility.yul\":6047:6052   */\n      dup2\n        /* \"#utility.yul\":6029:6053   */\n      tag_146\n      jump\t// in\n    tag_209:\n        /* \"#utility.yul\":6022:6027   */\n      dup2\n        /* \"#utility.yul\":6019:6054   */\n      eq\n        /* \"#utility.yul\":6009:6072   */\n      tag_210\n      jumpi\n        /* \"#utility.yul\":6068:6069   */\n      0x00\n        /* \"#utility.yul\":6065:6066   */\n      dup1\n        /* \"#utility.yul\":6058:6070   */\n      revert\n        /* \"#utility.yul\":6009:6072   */\n    tag_210:\n        /* \"#utility.yul\":5956:6078   */\n      pop\n      jump\t// out\n\n    auxdata: 0xa264697066735822122035a557fae13d2f8fba27995bb0a520e1ee597ee8237d9aa2128d3eab99b2b5d764736f6c63430008070033\n}\n",
				"bytecode": {
					"linkReferences": {},
					"object": "608060405260646002553480156200001657600080fd5b5060405162000f2b38038062000f2b83398181016040528101906200003c9190620000dc565b81600160006101000a81548173ffffffffffffffffffffffffffffffffffffffff021916908373ffffffffffffffffffffffffffffffffffffffff160217905550806000806101000a81548173ffffffffffffffffffffffffffffffffffffffff021916908373ffffffffffffffffffffffffffffffffffffffff160217905550505062000176565b600081519050620000d6816200015c565b92915050565b60008060408385031215620000f657620000f562000157565b5b60006200010685828601620000c5565b92505060206200011985828601620000c5565b9150509250929050565b6000620001308262000137565b9050919050565b600073ffffffffffffffffffffffffffffffffffffffff82169050919050565b600080fd5b620001678162000123565b81146200017357600080fd5b50565b610da580620001866000396000f3fe608060405234801561001057600080fd5b50600436106100b35760003560e01c80638b876347116100715780638b8763471461017a578063a694fc3a146101aa578063c8f33c91146101c6578063cd3daf9d146101e4578063d1af0c7d14610202578063df136d6514610220576100b3565b80628cc262146100b85780630700037d146100e85780632e1a7d4d146101185780633d18b9121461013457806372f702f31461013e5780637b0a47ee1461015c575b600080fd5b6100d260048036038101906100cd91906109ea565b61023e565b6040516100df9190610b19565b60405180910390f35b61010260048036038101906100fd91906109ea565b610340565b60405161010f9190610b19565b60405180910390f35b610132600480360381019061012d9190610a44565b610358565b005b61013c610523565b005b610146610706565b6040516101539190610afe565b60405180910390f35b61016461072c565b6040516101719190610b19565b60405180910390f35b610194600480360381019061018f91906109ea565b610732565b6040516101a19190610b19565b60405180910390f35b6101c460048036038101906101bf9190610a44565b61074a565b005b6101ce610917565b6040516101db9190610b19565b60405180910390f35b6101ec61091d565b6040516101f99190610b19565b60405180910390f35b61020a610981565b6040516102179190610afe565b60405180910390f35b6102286109a5565b6040516102359190610b19565b60405180910390f35b6000600660008373ffffffffffffffffffffffffffffffffffffffff1673ffffffffffffffffffffffffffffffffffffffff16815260200190815260200160002054670de0b6b3a7640000600560008573ffffffffffffffffffffffffffffffffffffffff1673ffffffffffffffffffffffffffffffffffffffff168152602001908152602001600020546102d161091d565b6102db9190610c15565b600860008673ffffffffffffffffffffffffffffffffffffffff1673ffffffffffffffffffffffffffffffffffffffff168152602001908152602001600020546103259190610bbb565b61032f9190610b8a565b6103399190610b34565b9050919050565b60066020528060005260406000206000915090505481565b3361036161091d565b600481905550426003819055506103778161023e565b600660008373ffffffffffffffffffffffffffffffffffffffff1673ffffffffffffffffffffffffffffffffffffffff16815260200190815260200160002081905550600454600560008373ffffffffffffffffffffffffffffffffffffffff1673ffffffffffffffffffffffffffffffffffffffff1681526020019081526020016000208190555081600760008282546104129190610c15565b9250508190555081600860003373ffffffffffffffffffffffffffffffffffffffff1673ffffffffffffffffffffffffffffffffffffffff16815260200190815260200160002060008282546104689190610c15565b92505081905550600160009054906101000a900473ffffffffffffffffffffffffffffffffffffffff1673ffffffffffffffffffffffffffffffffffffffff1663a9059cbb33846040518363ffffffff1660e01b81526004016104cc929190610ad5565b602060405180830381600087803b1580156104e657600080fd5b505af11580156104fa573d6000803e3d6000fd5b505050506040513d601f19601f8201168201806040525081019061051e9190610a17565b505050565b3361052c61091d565b600481905550426003819055506105428161023e565b600660008373ffffffffffffffffffffffffffffffffffffffff1673ffffffffffffffffffffffffffffffffffffffff16815260200190815260200160002081905550600454600560008373ffffffffffffffffffffffffffffffffffffffff1673ffffffffffffffffffffffffffffffffffffffff168152602001908152602001600020819055506000600660003373ffffffffffffffffffffffffffffffffffffffff1673ffffffffffffffffffffffffffffffffffffffff1681526020019081526020016000205490506000600660003373ffffffffffffffffffffffffffffffffffffffff1673ffffffffffffffffffffffffffffffffffffffff1681526020019081526020016000208190555060008054906101000a900473ffffffffffffffffffffffffffffffffffffffff1673ffffffffffffffffffffffffffffffffffffffff1663a9059cbb33836040518363ffffffff1660e01b81526004016106af929190610ad5565b602060405180830381600087803b1580156106c957600080fd5b505af11580156106dd573d6000803e3d6000fd5b505050506040513d601f19601f820116820180604052508101906107019190610a17565b505050565b600160009054906101000a900473ffffffffffffffffffffffffffffffffffffffff1681565b60025481565b60056020528060005260406000206000915090505481565b3361075361091d565b600481905550426003819055506107698161023e565b600660008373ffffffffffffffffffffffffffffffffffffffff1673ffffffffffffffffffffffffffffffffffffffff16815260200190815260200160002081905550600454600560008373ffffffffffffffffffffffffffffffffffffffff1673ffffffffffffffffffffffffffffffffffffffff1681526020019081526020016000208190555081600760008282546108049190610b34565b9250508190555081600860003373ffffffffffffffffffffffffffffffffffffffff1673ffffffffffffffffffffffffffffffffffffffff168152602001908152602001600020600082825461085a9190610b34565b92505081905550600160009054906101000a900473ffffffffffffffffffffffffffffffffffffffff1673ffffffffffffffffffffffffffffffffffffffff166323b872dd3330856040518463ffffffff1660e01b81526004016108c093929190610a9e565b602060405180830381600087803b1580156108da57600080fd5b505af11580156108ee573d6000803e3d6000fd5b505050506040513d601f19601f820116820180604052508101906109129190610a17565b505050565b60035481565b600080600754141561093357600454905061097e565b600754670de0b6b3a7640000600254600354426109509190610c15565b61095a9190610bbb565b6109649190610bbb565b61096e9190610b8a565b60045461097b9190610b34565b90505b90565b60008054906101000a900473ffffffffffffffffffffffffffffffffffffffff1681565b60045481565b6000813590506109ba81610d2a565b92915050565b6000815190506109cf81610d41565b92915050565b6000813590506109e481610d58565b92915050565b600060208284031215610a00576109ff610d25565b5b6000610a0e848285016109ab565b91505092915050565b600060208284031215610a2d57610a2c610d25565b5b6000610a3b848285016109c0565b91505092915050565b600060208284031215610a5a57610a59610d25565b5b6000610a68848285016109d5565b91505092915050565b610a7a81610c49565b82525050565b610a8981610c91565b82525050565b610a9881610c87565b82525050565b6000606082019050610ab36000830186610a71565b610ac06020830185610a71565b610acd6040830184610a8f565b949350505050565b6000604082019050610aea6000830185610a71565b610af76020830184610a8f565b9392505050565b6000602082019050610b136000830184610a80565b92915050565b6000602082019050610b2e6000830184610a8f565b92915050565b6000610b3f82610c87565b9150610b4a83610c87565b9250827fffffffffffffffffffffffffffffffffffffffffffffffffffffffffffffffff03821115610b7f57610b7e610cc7565b5b828201905092915050565b6000610b9582610c87565b9150610ba083610c87565b925082610bb057610baf610cf6565b5b828204905092915050565b6000610bc682610c87565b9150610bd183610c87565b9250817fffffffffffffffffffffffffffffffffffffffffffffffffffffffffffffffff0483118215151615610c0a57610c09610cc7565b5b828202905092915050565b6000610c2082610c87565b9150610c2b83610c87565b925082821015610c3e57610c3d610cc7565b5b828203905092915050565b6000610c5482610c67565b9050919050565b60008115159050919050565b600073ffffffffffffffffffffffffffffffffffffffff82169050919050565b6000819050919050565b6000610c9c82610ca3565b9050919050565b6000610cae82610cb5565b9050919050565b6000610cc082610c67565b9050919050565b7f4e487b7100000000000000000000000000000000000000000000000000000000600052601160045260246000fd5b7f4e487b7100000000000000000000000000000000000000000000000000000000600052601260045260246000fd5b600080fd5b610d3381610c49565b8114610d3e57600080fd5b50565b610d4a81610c5b565b8114610d5557600080fd5b50565b610d6181610c87565b8114610d6c57600080fd5b5056fea264697066735822122035a557fae13d2f8fba27995bb0a520e1ee597ee8237d9aa2128d3eab99b2b5d764736f6c63430008070033",
					"opcodes": "PUSH1 0x80 PUSH1 0x40 MSTORE PUSH1 0x64 PUSH1 0x2 SSTORE CALLVALUE DUP1 ISZERO PUSH3 0x16 JUMPI PUSH1 0x0 DUP1 REVERT JUMPDEST POP PUSH1 0x40 MLOAD PUSH3 0xF2B CODESIZE SUB DUP1 PUSH3 0xF2B DUP4 CODECOPY DUP2 DUP2 ADD PUSH1 0x40 MSTORE DUP2 ADD SWAP1 PUSH3 0x3C SWAP2 SWAP1 PUSH3 0xDC JUMP JUMPDEST DUP2 PUSH1 0x1 PUSH1 0x0 PUSH2 0x100 EXP DUP2 SLOAD DUP2 PUSH20 0xFFFFFFFFFFFFFFFFFFFFFFFFFFFFFFFFFFFFFFFF MUL NOT AND SWAP1 DUP4 PUSH20 0xFFFFFFFFFFFFFFFFFFFFFFFFFFFFFFFFFFFFFFFF AND MUL OR SWAP1 SSTORE POP DUP1 PUSH1 0x0 DUP1 PUSH2 0x100 EXP DUP2 SLOAD DUP2 PUSH20 0xFFFFFFFFFFFFFFFFFFFFFFFFFFFFFFFFFFFFFFFF MUL NOT AND SWAP1 DUP4 PUSH20 0xFFFFFFFFFFFFFFFFFFFFFFFFFFFFFFFFFFFFFFFF AND MUL OR SWAP1 SSTORE POP POP POP PUSH3 0x176 JUMP JUMPDEST PUSH1 0x0 DUP2 MLOAD SWAP1 POP PUSH3 0xD6 DUP2 PUSH3 0x15C JUMP JUMPDEST SWAP3 SWAP2 POP POP JUMP JUMPDEST PUSH1 0x0 DUP1 PUSH1 0x40 DUP4 DUP6 SUB SLT ISZERO PUSH3 0xF6 JUMPI PUSH3 0xF5 PUSH3 0x157 JUMP JUMPDEST JUMPDEST PUSH1 0x0 PUSH3 0x106 DUP6 DUP3 DUP7 ADD PUSH3 0xC5 JUMP JUMPDEST SWAP3 POP POP PUSH1 0x20 PUSH3 0x119 DUP6 DUP3 DUP7 ADD PUSH3 0xC5 JUMP JUMPDEST SWAP2 POP POP SWAP3 POP SWAP3 SWAP1 POP JUMP JUMPDEST PUSH1 0x0 PUSH3 0x130 DUP3 PUSH3 0x137 JUMP JUMPDEST SWAP1 POP SWAP2 SWAP1 POP JUMP JUMPDEST PUSH1 0x0 PUSH20 0xFFFFFFFFFFFFFFFFFFFFFFFFFFFFFFFFFFFFFFFF DUP3 AND SWAP1 POP SWAP2 SWAP1 POP JUMP JUMPDEST PUSH1 0x0 DUP1 REVERT JUMPDEST PUSH3 0x167 DUP2 PUSH3 0x123 JUMP JUMPDEST DUP2 EQ PUSH3 0x173 JUMPI PUSH1 0x0 DUP1 REVERT JUMPDEST POP JUMP JUMPDEST PUSH2 0xDA5 DUP1 PUSH3 0x186 PUSH1 0x0 CODECOPY PUSH1 0x0 RETURN INVALID PUSH1 0x80 PUSH1 0x40 MSTORE CALLVALUE DUP1 ISZERO PUSH2 0x10 JUMPI PUSH1 0x0 DUP1 REVERT JUMPDEST POP PUSH1 0x4 CALLDATASIZE LT PUSH2 0xB3 JUMPI PUSH1 0x0 CALLDATALOAD PUSH1 0xE0 SHR DUP1 PUSH4 0x8B876347 GT PUSH2 0x71 JUMPI DUP1 PUSH4 0x8B876347 EQ PUSH2 0x17A JUMPI DUP1 PUSH4 0xA694FC3A EQ PUSH2 0x1AA JUMPI DUP1 PUSH4 0xC8F33C91 EQ PUSH2 0x1C6 JUMPI DUP1 PUSH4 0xCD3DAF9D EQ PUSH2 0x1E4 JUMPI DUP1 PUSH4 0xD1AF0C7D EQ PUSH2 0x202 JUMPI DUP1 PUSH4 0xDF136D65 EQ PUSH2 0x220 JUMPI PUSH2 0xB3 JUMP JUMPDEST DUP1 PUSH3 0x8CC262 EQ PUSH2 0xB8 JUMPI DUP1 PUSH4 0x700037D EQ PUSH2 0xE8 JUMPI DUP1 PUSH4 0x2E1A7D4D EQ PUSH2 0x118 JUMPI DUP1 PUSH4 0x3D18B912 EQ PUSH2 0x134 JUMPI DUP1 PUSH4 0x72F702F3 EQ PUSH2 0x13E JUMPI DUP1 PUSH4 0x7B0A47EE EQ PUSH2 0x15C JUMPI JUMPDEST PUSH1 0x0 DUP1 REVERT JUMPDEST PUSH2 0xD2 PUSH1 0x4 DUP1 CALLDATASIZE SUB DUP2 ADD SWAP1 PUSH2 0xCD SWAP2 SWAP1 PUSH2 0x9EA JUMP JUMPDEST PUSH2 0x23E JUMP JUMPDEST PUSH1 0x40 MLOAD PUSH2 0xDF SWAP2 SWAP1 PUSH2 0xB19 JUMP JUMPDEST PUSH1 0x40 MLOAD DUP1 SWAP2 SUB SWAP1 RETURN JUMPDEST PUSH2 0x102 PUSH1 0x4 DUP1 CALLDATASIZE SUB DUP2 ADD SWAP1 PUSH2 0xFD SWAP2 SWAP1 PUSH2 0x9EA JUMP JUMPDEST PUSH2 0x340 JUMP JUMPDEST PUSH1 0x40 MLOAD PUSH2 0x10F SWAP2 SWAP1 PUSH2 0xB19 JUMP JUMPDEST PUSH1 0x40 MLOAD DUP1 SWAP2 SUB SWAP1 RETURN JUMPDEST PUSH2 0x132 PUSH1 0x4 DUP1 CALLDATASIZE SUB DUP2 ADD SWAP1 PUSH2 0x12D SWAP2 SWAP1 PUSH2 0xA44 JUMP JUMPDEST PUSH2 0x358 JUMP JUMPDEST STOP JUMPDEST PUSH2 0x13C PUSH2 0x523 JUMP JUMPDEST STOP JUMPDEST PUSH2 0x146 PUSH2 0x706 JUMP JUMPDEST PUSH1 0x40 MLOAD PUSH2 0x153 SWAP2 SWAP1 PUSH2 0xAFE JUMP JUMPDEST PUSH1 0x40 MLOAD DUP1 SWAP2 SUB SWAP1 RETURN JUMPDEST PUSH2 0x164 PUSH2 0x72C JUMP JUMPDEST PUSH1 0x40 MLOAD PUSH2 0x171 SWAP2 SWAP1 PUSH2 0xB19 JUMP JUMPDEST PUSH1 0x40 MLOAD DUP1 SWAP2 SUB SWAP1 RETURN JUMPDEST PUSH2 0x194 PUSH1 0x4 DUP1 CALLDATASIZE SUB DUP2 ADD SWAP1 PUSH2 0x18F SWAP2 SWAP1 PUSH2 0x9EA JUMP JUMPDEST PUSH2 0x732 JUMP JUMPDEST PUSH1 0x40 MLOAD PUSH2 0x1A1 SWAP2 SWAP1 PUSH2 0xB19 JUMP JUMPDEST PUSH1 0x40 MLOAD DUP1 SWAP2 SUB SWAP1 RETURN JUMPDEST PUSH2 0x1C4 PUSH1 0x4 DUP1 CALLDATASIZE SUB DUP2 ADD SWAP1 PUSH2 0x1BF SWAP2 SWAP1 PUSH2 0xA44 JUMP JUMPDEST PUSH2 0x74A JUMP JUMPDEST STOP JUMPDEST PUSH2 0x1CE PUSH2 0x917 JUMP JUMPDEST PUSH1 0x40 MLOAD PUSH2 0x1DB SWAP2 SWAP1 PUSH2 0xB19 JUMP JUMPDEST PUSH1 0x40 MLOAD DUP1 SWAP2 SUB SWAP1 RETURN JUMPDEST PUSH2 0x1EC PUSH2 0x91D JUMP JUMPDEST PUSH1 0x40 MLOAD PUSH2 0x1F9 SWAP2 SWAP1 PUSH2 0xB19 JUMP JUMPDEST PUSH1 0x40 MLOAD DUP1 SWAP2 SUB SWAP1 RETURN JUMPDEST PUSH2 0x20A PUSH2 0x981 JUMP JUMPDEST PUSH1 0x40 MLOAD PUSH2 0x217 SWAP2 SWAP1 PUSH2 0xAFE JUMP JUMPDEST PUSH1 0x40 MLOAD DUP1 SWAP2 SUB SWAP1 RETURN JUMPDEST PUSH2 0x228 PUSH2 0x9A5 JUMP JUMPDEST PUSH1 0x40 MLOAD PUSH2 0x235 SWAP2 SWAP1 PUSH2 0xB19 JUMP JUMPDEST PUSH1 0x40 MLOAD DUP1 SWAP2 SUB SWAP1 RETURN JUMPDEST PUSH1 0x0 PUSH1 0x6 PUSH1 0x0 DUP4 PUSH20 0xFFFFFFFFFFFFFFFFFFFFFFFFFFFFFFFFFFFFFFFF AND PUSH20 0xFFFFFFFFFFFFFFFFFFFFFFFFFFFFFFFFFFFFFFFF AND DUP2 MSTORE PUSH1 0x20 ADD SWAP1 DUP2 MSTORE PUSH1 0x20 ADD PUSH1 0x0 KECCAK256 SLOAD PUSH8 0xDE0B6B3A7640000 PUSH1 0x5 PUSH1 0x0 DUP6 PUSH20 0xFFFFFFFFFFFFFFFFFFFFFFFFFFFFFFFFFFFFFFFF AND PUSH20 0xFFFFFFFFFFFFFFFFFFFFFFFFFFFFFFFFFFFFFFFF AND DUP2 MSTORE PUSH1 0x20 ADD SWAP1 DUP2 MSTORE PUSH1 0x20 ADD PUSH1 0x0 KECCAK256 SLOAD PUSH2 0x2D1 PUSH2 0x91D JUMP JUMPDEST PUSH2 0x2DB SWAP2 SWAP1 PUSH2 0xC15 JUMP JUMPDEST PUSH1 0x8 PUSH1 0x0 DUP7 PUSH20 0xFFFFFFFFFFFFFFFFFFFFFFFFFFFFFFFFFFFFFFFF AND PUSH20 0xFFFFFFFFFFFFFFFFFFFFFFFFFFFFFFFFFFFFFFFF AND DUP2 MSTORE PUSH1 0x20 ADD SWAP1 DUP2 MSTORE PUSH1 0x20 ADD PUSH1 0x0 KECCAK256 SLOAD PUSH2 0x325 SWAP2 SWAP1 PUSH2 0xBBB JUMP JUMPDEST PUSH2 0x32F SWAP2 SWAP1 PUSH2 0xB8A JUMP JUMPDEST PUSH2 0x339 SWAP2 SWAP1 PUSH2 0xB34 JUMP JUMPDEST SWAP1 POP SWAP2 SWAP1 POP JUMP JUMPDEST PUSH1 0x6 PUSH1 0x20 MSTORE DUP1 PUSH1 0x0 MSTORE PUSH1 0x40 PUSH1 0x0 KECCAK256 PUSH1 0x0 SWAP2 POP SWAP1 POP SLOAD DUP2 JUMP JUMPDEST CALLER PUSH2 0x361 PUSH2 0x91D JUMP JUMPDEST PUSH1 0x4 DUP2 SWAP1 SSTORE POP TIMESTAMP PUSH1 0x3 DUP2 SWAP1 SSTORE POP PUSH2 0x377 DUP2 PUSH2 0x23E JUMP JUMPDEST PUSH1 0x6 PUSH1 0x0 DUP4 PUSH20 0xFFFFFFFFFFFFFFFFFFFFFFFFFFFFFFFFFFFFFFFF AND PUSH20 0xFFFFFFFFFFFFFFFFFFFFFFFFFFFFFFFFFFFFFFFF AND DUP2 MSTORE PUSH1 0x20 ADD SWAP1 DUP2 MSTORE PUSH1 0x20 ADD PUSH1 0x0 KECCAK256 DUP2 SWAP1 SSTORE POP PUSH1 0x4 SLOAD PUSH1 0x5 PUSH1 0x0 DUP4 PUSH20 0xFFFFFFFFFFFFFFFFFFFFFFFFFFFFFFFFFFFFFFFF AND PUSH20 0xFFFFFFFFFFFFFFFFFFFFFFFFFFFFFFFFFFFFFFFF AND DUP2 MSTORE PUSH1 0x20 ADD SWAP1 DUP2 MSTORE PUSH1 0x20 ADD PUSH1 0x0 KECCAK256 DUP2 SWAP1 SSTORE POP DUP2 PUSH1 0x7 PUSH1 0x0 DUP3 DUP3 SLOAD PUSH2 0x412 SWAP2 SWAP1 PUSH2 0xC15 JUMP JUMPDEST SWAP3 POP POP DUP2 SWAP1 SSTORE POP DUP2 PUSH1 0x8 PUSH1 0x0 CALLER PUSH20 0xFFFFFFFFFFFFFFFFFFFFFFFFFFFFFFFFFFFFFFFF AND PUSH20 0xFFFFFFFFFFFFFFFFFFFFFFFFFFFFFFFFFFFFFFFF AND DUP2 MSTORE PUSH1 0x20 ADD SWAP1 DUP2 MSTORE PUSH1 0x20 ADD PUSH1 0x0 KECCAK256 PUSH1 0x0 DUP3 DUP3 SLOAD PUSH2 0x468 SWAP2 SWAP1 PUSH2 0xC15 JUMP JUMPDEST SWAP3 POP POP DUP2 SWAP1 SSTORE POP PUSH1 0x1 PUSH1 0x0 SWAP1 SLOAD SWAP1 PUSH2 0x100 EXP SWAP1 DIV PUSH20 0xFFFFFFFFFFFFFFFFFFFFFFFFFFFFFFFFFFFFFFFF AND PUSH20 0xFFFFFFFFFFFFFFFFFFFFFFFFFFFFFFFFFFFFFFFF AND PUSH4 0xA9059CBB CALLER DUP5 PUSH1 0x40 MLOAD DUP4 PUSH4 0xFFFFFFFF AND PUSH1 0xE0 SHL DUP2 MSTORE PUSH1 0x4 ADD PUSH2 0x4CC SWAP3 SWAP2 SWAP1 PUSH2 0xAD5 JUMP JUMPDEST PUSH1 0x20 PUSH1 0x40 MLOAD DUP1 DUP4 SUB DUP2 PUSH1 0x0 DUP8 DUP1 EXTCODESIZE ISZERO DUP1 ISZERO PUSH2 0x4E6 JUMPI PUSH1 0x0 DUP1 REVERT JUMPDEST POP GAS CALL ISZERO DUP1 ISZERO PUSH2 0x4FA JUMPI RETURNDATASIZE PUSH1 0x0 DUP1 RETURNDATACOPY RETURNDATASIZE PUSH1 0x0 REVERT JUMPDEST POP POP POP POP PUSH1 0x40 MLOAD RETURNDATASIZE PUSH1 0x1F NOT PUSH1 0x1F DUP3 ADD AND DUP3 ADD DUP1 PUSH1 0x40 MSTORE POP DUP2 ADD SWAP1 PUSH2 0x51E SWAP2 SWAP1 PUSH2 0xA17 JUMP JUMPDEST POP POP POP JUMP JUMPDEST CALLER PUSH2 0x52C PUSH2 0x91D JUMP JUMPDEST PUSH1 0x4 DUP2 SWAP1 SSTORE POP TIMESTAMP PUSH1 0x3 DUP2 SWAP1 SSTORE POP PUSH2 0x542 DUP2 PUSH2 0x23E JUMP JUMPDEST PUSH1 0x6 PUSH1 0x0 DUP4 PUSH20 0xFFFFFFFFFFFFFFFFFFFFFFFFFFFFFFFFFFFFFFFF AND PUSH20 0xFFFFFFFFFFFFFFFFFFFFFFFFFFFFFFFFFFFFFFFF AND DUP2 MSTORE PUSH1 0x20 ADD SWAP1 DUP2 MSTORE PUSH1 0x20 ADD PUSH1 0x0 KECCAK256 DUP2 SWAP1 SSTORE POP PUSH1 0x4 SLOAD PUSH1 0x5 PUSH1 0x0 DUP4 PUSH20 0xFFFFFFFFFFFFFFFFFFFFFFFFFFFFFFFFFFFFFFFF AND PUSH20 0xFFFFFFFFFFFFFFFFFFFFFFFFFFFFFFFFFFFFFFFF AND DUP2 MSTORE PUSH1 0x20 ADD SWAP1 DUP2 MSTORE PUSH1 0x20 ADD PUSH1 0x0 KECCAK256 DUP2 SWAP1 SSTORE POP PUSH1 0x0 PUSH1 0x6 PUSH1 0x0 CALLER PUSH20 0xFFFFFFFFFFFFFFFFFFFFFFFFFFFFFFFFFFFFFFFF AND PUSH20 0xFFFFFFFFFFFFFFFFFFFFFFFFFFFFFFFFFFFFFFFF AND DUP2 MSTORE PUSH1 0x20 ADD SWAP1 DUP2 MSTORE PUSH1 0x20 ADD PUSH1 0x0 KECCAK256 SLOAD SWAP1 POP PUSH1 0x0 PUSH1 0x6 PUSH1 0x0 CALLER PUSH20 0xFFFFFFFFFFFFFFFFFFFFFFFFFFFFFFFFFFFFFFFF AND PUSH20 0xFFFFFFFFFFFFFFFFFFFFFFFFFFFFFFFFFFFFFFFF AND DUP2 MSTORE PUSH1 0x20 ADD SWAP1 DUP2 MSTORE PUSH1 0x20 ADD PUSH1 0x0 KECCAK256 DUP2 SWAP1 SSTORE POP PUSH1 0x0 DUP1 SLOAD SWAP1 PUSH2 0x100 EXP SWAP1 DIV PUSH20 0xFFFFFFFFFFFFFFFFFFFFFFFFFFFFFFFFFFFFFFFF AND PUSH20 0xFFFFFFFFFFFFFFFFFFFFFFFFFFFFFFFFFFFFFFFF AND PUSH4 0xA9059CBB CALLER DUP4 PUSH1 0x40 MLOAD DUP4 PUSH4 0xFFFFFFFF AND PUSH1 0xE0 SHL DUP2 MSTORE PUSH1 0x4 ADD PUSH2 0x6AF SWAP3 SWAP2 SWAP1 PUSH2 0xAD5 JUMP JUMPDEST PUSH1 0x20 PUSH1 0x40 MLOAD DUP1 DUP4 SUB DUP2 PUSH1 0x0 DUP8 DUP1 EXTCODESIZE ISZERO DUP1 ISZERO PUSH2 0x6C9 JUMPI PUSH1 0x0 DUP1 REVERT JUMPDEST POP GAS CALL ISZERO DUP1 ISZERO PUSH2 0x6DD JUMPI RETURNDATASIZE PUSH1 0x0 DUP1 RETURNDATACOPY RETURNDATASIZE PUSH1 0x0 REVERT JUMPDEST POP POP POP POP PUSH1 0x40 MLOAD RETURNDATASIZE PUSH1 0x1F NOT PUSH1 0x1F DUP3 ADD AND DUP3 ADD DUP1 PUSH1 0x40 MSTORE POP DUP2 ADD SWAP1 PUSH2 0x701 SWAP2 SWAP1 PUSH2 0xA17 JUMP JUMPDEST POP POP POP JUMP JUMPDEST PUSH1 0x1 PUSH1 0x0 SWAP1 SLOAD SWAP1 PUSH2 0x100 EXP SWAP1 DIV PUSH20 0xFFFFFFFFFFFFFFFFFFFFFFFFFFFFFFFFFFFFFFFF AND DUP2 JUMP JUMPDEST PUSH1 0x2 SLOAD DUP2 JUMP JUMPDEST PUSH1 0x5 PUSH1 0x20 MSTORE DUP1 PUSH1 0x0 MSTORE PUSH1 0x40 PUSH1 0x0 KECCAK256 PUSH1 0x0 SWAP2 POP SWAP1 POP SLOAD DUP2 JUMP JUMPDEST CALLER PUSH2 0x753 PUSH2 0x91D JUMP JUMPDEST PUSH1 0x4 DUP2 SWAP1 SSTORE POP TIMESTAMP PUSH1 0x3 DUP2 SWAP1 SSTORE POP PUSH2 0x769 DUP2 PUSH2 0x23E JUMP JUMPDEST PUSH1 0x6 PUSH1 0x0 DUP4 PUSH20 0xFFFFFFFFFFFFFFFFFFFFFFFFFFFFFFFFFFFFFFFF AND PUSH20 0xFFFFFFFFFFFFFFFFFFFFFFFFFFFFFFFFFFFFFFFF AND DUP2 MSTORE PUSH1 0x20 ADD SWAP1 DUP2 MSTORE PUSH1 0x20 ADD PUSH1 0x0 KECCAK256 DUP2 SWAP1 SSTORE POP PUSH1 0x4 SLOAD PUSH1 0x5 PUSH1 0x0 DUP4 PUSH20 0xFFFFFFFFFFFFFFFFFFFFFFFFFFFFFFFFFFFFFFFF AND PUSH20 0xFFFFFFFFFFFFFFFFFFFFFFFFFFFFFFFFFFFFFFFF AND DUP2 MSTORE PUSH1 0x20 ADD SWAP1 DUP2 MSTORE PUSH1 0x20 ADD PUSH1 0x0 KECCAK256 DUP2 SWAP1 SSTORE POP DUP2 PUSH1 0x7 PUSH1 0x0 DUP3 DUP3 SLOAD PUSH2 0x804 SWAP2 SWAP1 PUSH2 0xB34 JUMP JUMPDEST SWAP3 POP POP DUP2 SWAP1 SSTORE POP DUP2 PUSH1 0x8 PUSH1 0x0 CALLER PUSH20 0xFFFFFFFFFFFFFFFFFFFFFFFFFFFFFFFFFFFFFFFF AND PUSH20 0xFFFFFFFFFFFFFFFFFFFFFFFFFFFFFFFFFFFFFFFF AND DUP2 MSTORE PUSH1 0x20 ADD SWAP1 DUP2 MSTORE PUSH1 0x20 ADD PUSH1 0x0 KECCAK256 PUSH1 0x0 DUP3 DUP3 SLOAD PUSH2 0x85A SWAP2 SWAP1 PUSH2 0xB34 JUMP JUMPDEST SWAP3 POP POP DUP2 SWAP1 SSTORE POP PUSH1 0x1 PUSH1 0x0 SWAP1 SLOAD SWAP1 PUSH2 0x100 EXP SWAP1 DIV PUSH20 0xFFFFFFFFFFFFFFFFFFFFFFFFFFFFFFFFFFFFFFFF AND PUSH20 0xFFFFFFFFFFFFFFFFFFFFFFFFFFFFFFFFFFFFFFFF AND PUSH4 0x23B872DD CALLER ADDRESS DUP6 PUSH1 0x40 MLOAD DUP5 PUSH4 0xFFFFFFFF AND PUSH1 0xE0 SHL DUP2 MSTORE PUSH1 0x4 ADD PUSH2 0x8C0 SWAP4 SWAP3 SWAP2 SWAP1 PUSH2 0xA9E JUMP JUMPDEST PUSH1 0x20 PUSH1 0x40 MLOAD DUP1 DUP4 SUB DUP2 PUSH1 0x0 DUP8 DUP1 EXTCODESIZE ISZERO DUP1 ISZERO PUSH2 0x8DA JUMPI PUSH1 0x0 DUP1 REVERT JUMPDEST POP GAS CALL ISZERO DUP1 ISZERO PUSH2 0x8EE JUMPI RETURNDATASIZE PUSH1 0x0 DUP1 RETURNDATACOPY RETURNDATASIZE PUSH1 0x0 REVERT JUMPDEST POP POP POP POP PUSH1 0x40 MLOAD RETURNDATASIZE PUSH1 0x1F NOT PUSH1 0x1F DUP3 ADD AND DUP3 ADD DUP1 PUSH1 0x40 MSTORE POP DUP2 ADD SWAP1 PUSH2 0x912 SWAP2 SWAP1 PUSH2 0xA17 JUMP JUMPDEST POP POP POP JUMP JUMPDEST PUSH1 0x3 SLOAD DUP2 JUMP JUMPDEST PUSH1 0x0 DUP1 PUSH1 0x7 SLOAD EQ ISZERO PUSH2 0x933 JUMPI PUSH1 0x4 SLOAD SWAP1 POP PUSH2 0x97E JUMP JUMPDEST PUSH1 0x7 SLOAD PUSH8 0xDE0B6B3A7640000 PUSH1 0x2 SLOAD PUSH1 0x3 SLOAD TIMESTAMP PUSH2 0x950 SWAP2 SWAP1 PUSH2 0xC15 JUMP JUMPDEST PUSH2 0x95A SWAP2 SWAP1 PUSH2 0xBBB JUMP JUMPDEST PUSH2 0x964 SWAP2 SWAP1 PUSH2 0xBBB JUMP JUMPDEST PUSH2 0x96E SWAP2 SWAP1 PUSH2 0xB8A JUMP JUMPDEST PUSH1 0x4 SLOAD PUSH2 0x97B SWAP2 SWAP1 PUSH2 0xB34 JUMP JUMPDEST SWAP1 POP JUMPDEST SWAP1 JUMP JUMPDEST PUSH1 0x0 DUP1 SLOAD SWAP1 PUSH2 0x100 EXP SWAP1 DIV PUSH20 0xFFFFFFFFFFFFFFFFFFFFFFFFFFFFFFFFFFFFFFFF AND DUP2 JUMP JUMPDEST PUSH1 0x4 SLOAD DUP2 JUMP JUMPDEST PUSH1 0x0 DUP2 CALLDATALOAD SWAP1 POP PUSH2 0x9BA DUP2 PUSH2 0xD2A JUMP JUMPDEST SWAP3 SWAP2 POP POP JUMP JUMPDEST PUSH1 0x0 DUP2 MLOAD SWAP1 POP PUSH2 0x9CF DUP2 PUSH2 0xD41 JUMP JUMPDEST SWAP3 SWAP2 POP POP JUMP JUMPDEST PUSH1 0x0 DUP2 CALLDATALOAD SWAP1 POP PUSH2 0x9E4 DUP2 PUSH2 0xD58 JUMP JUMPDEST SWAP3 SWAP2 POP POP JUMP JUMPDEST PUSH1 0x0 PUSH1 0x20 DUP3 DUP5 SUB SLT ISZERO PUSH2 0xA00 JUMPI PUSH2 0x9FF PUSH2 0xD25 JUMP JUMPDEST JUMPDEST PUSH1 0x0 PUSH2 0xA0E DUP5 DUP3 DUP6 ADD PUSH2 0x9AB JUMP JUMPDEST SWAP2 POP POP SWAP3 SWAP2 POP POP JUMP JUMPDEST PUSH1 0x0 PUSH1 0x20 DUP3 DUP5 SUB SLT ISZERO PUSH2 0xA2D JUMPI PUSH2 0xA2C PUSH2 0xD25 JUMP JUMPDEST JUMPDEST PUSH1 0x0 PUSH2 0xA3B DUP5 DUP3 DUP6 ADD PUSH2 0x9C0 JUMP JUMPDEST SWAP2 POP POP SWAP3 SWAP2 POP POP JUMP JUMPDEST PUSH1 0x0 PUSH1 0x20 DUP3 DUP5 SUB SLT ISZERO PUSH2 0xA5A JUMPI PUSH2 0xA59 PUSH2 0xD25 JUMP JUMPDEST JUMPDEST PUSH1 0x0 PUSH2 0xA68 DUP5 DUP3 DUP6 ADD PUSH2 0x9D5 JUMP JUMPDEST SWAP2 POP POP SWAP3 SWAP2 POP POP JUMP JUMPDEST PUSH2 0xA7A DUP2 PUSH2 0xC49 JUMP JUMPDEST DUP3 MSTORE POP POP JUMP JUMPDEST PUSH2 0xA89 DUP2 PUSH2 0xC91 JUMP JUMPDEST DUP3 MSTORE POP POP JUMP JUMPDEST PUSH2 0xA98 DUP2 PUSH2 0xC87 JUMP JUMPDEST DUP3 MSTORE POP POP JUMP JUMPDEST PUSH1 0x0 PUSH1 0x60 DUP3 ADD SWAP1 POP PUSH2 0xAB3 PUSH1 0x0 DUP4 ADD DUP7 PUSH2 0xA71 JUMP JUMPDEST PUSH2 0xAC0 PUSH1 0x20 DUP4 ADD DUP6 PUSH2 0xA71 JUMP JUMPDEST PUSH2 0xACD PUSH1 0x40 DUP4 ADD DUP5 PUSH2 0xA8F JUMP JUMPDEST SWAP5 SWAP4 POP POP POP POP JUMP JUMPDEST PUSH1 0x0 PUSH1 0x40 DUP3 ADD SWAP1 POP PUSH2 0xAEA PUSH1 0x0 DUP4 ADD DUP6 PUSH2 0xA71 JUMP JUMPDEST PUSH2 0xAF7 PUSH1 0x20 DUP4 ADD DUP5 PUSH2 0xA8F JUMP JUMPDEST SWAP4 SWAP3 POP POP POP JUMP JUMPDEST PUSH1 0x0 PUSH1 0x20 DUP3 ADD SWAP1 POP PUSH2 0xB13 PUSH1 0x0 DUP4 ADD DUP5 PUSH2 0xA80 JUMP JUMPDEST SWAP3 SWAP2 POP POP JUMP JUMPDEST PUSH1 0x0 PUSH1 0x20 DUP3 ADD SWAP1 POP PUSH2 0xB2E PUSH1 0x0 DUP4 ADD DUP5 PUSH2 0xA8F JUMP JUMPDEST SWAP3 SWAP2 POP POP JUMP JUMPDEST PUSH1 0x0 PUSH2 0xB3F DUP3 PUSH2 0xC87 JUMP JUMPDEST SWAP2 POP PUSH2 0xB4A DUP4 PUSH2 0xC87 JUMP JUMPDEST SWAP3 POP DUP3 PUSH32 0xFFFFFFFFFFFFFFFFFFFFFFFFFFFFFFFFFFFFFFFFFFFFFFFFFFFFFFFFFFFFFFFF SUB DUP3 GT ISZERO PUSH2 0xB7F JUMPI PUSH2 0xB7E PUSH2 0xCC7 JUMP JUMPDEST JUMPDEST DUP3 DUP3 ADD SWAP1 POP SWAP3 SWAP2 POP POP JUMP JUMPDEST PUSH1 0x0 PUSH2 0xB95 DUP3 PUSH2 0xC87 JUMP JUMPDEST SWAP2 POP PUSH2 0xBA0 DUP4 PUSH2 0xC87 JUMP JUMPDEST SWAP3 POP DUP3 PUSH2 0xBB0 JUMPI PUSH2 0xBAF PUSH2 0xCF6 JUMP JUMPDEST JUMPDEST DUP3 DUP3 DIV SWAP1 POP SWAP3 SWAP2 POP POP JUMP JUMPDEST PUSH1 0x0 PUSH2 0xBC6 DUP3 PUSH2 0xC87 JUMP JUMPDEST SWAP2 POP PUSH2 0xBD1 DUP4 PUSH2 0xC87 JUMP JUMPDEST SWAP3 POP DUP2 PUSH32 0xFFFFFFFFFFFFFFFFFFFFFFFFFFFFFFFFFFFFFFFFFFFFFFFFFFFFFFFFFFFFFFFF DIV DUP4 GT DUP3 ISZERO ISZERO AND ISZERO PUSH2 0xC0A JUMPI PUSH2 0xC09 PUSH2 0xCC7 JUMP JUMPDEST JUMPDEST DUP3 DUP3 MUL SWAP1 POP SWAP3 SWAP2 POP POP JUMP JUMPDEST PUSH1 0x0 PUSH2 0xC20 DUP3 PUSH2 0xC87 JUMP JUMPDEST SWAP2 POP PUSH2 0xC2B DUP4 PUSH2 0xC87 JUMP JUMPDEST SWAP3 POP DUP3 DUP3 LT ISZERO PUSH2 0xC3E JUMPI PUSH2 0xC3D PUSH2 0xCC7 JUMP JUMPDEST JUMPDEST DUP3 DUP3 SUB SWAP1 POP SWAP3 SWAP2 POP POP JUMP JUMPDEST PUSH1 0x0 PUSH2 0xC54 DUP3 PUSH2 0xC67 JUMP JUMPDEST SWAP1 POP SWAP2 SWAP1 POP JUMP JUMPDEST PUSH1 0x0 DUP2 ISZERO ISZERO SWAP1 POP SWAP2 SWAP1 POP JUMP JUMPDEST PUSH1 0x0 PUSH20 0xFFFFFFFFFFFFFFFFFFFFFFFFFFFFFFFFFFFFFFFF DUP3 AND SWAP1 POP SWAP2 SWAP1 POP JUMP JUMPDEST PUSH1 0x0 DUP2 SWAP1 POP SWAP2 SWAP1 POP JUMP JUMPDEST PUSH1 0x0 PUSH2 0xC9C DUP3 PUSH2 0xCA3 JUMP JUMPDEST SWAP1 POP SWAP2 SWAP1 POP JUMP JUMPDEST PUSH1 0x0 PUSH2 0xCAE DUP3 PUSH2 0xCB5 JUMP JUMPDEST SWAP1 POP SWAP2 SWAP1 POP JUMP JUMPDEST PUSH1 0x0 PUSH2 0xCC0 DUP3 PUSH2 0xC67 JUMP JUMPDEST SWAP1 POP SWAP2 SWAP1 POP JUMP JUMPDEST PUSH32 0x4E487B7100000000000000000000000000000000000000000000000000000000 PUSH1 0x0 MSTORE PUSH1 0x11 PUSH1 0x4 MSTORE PUSH1 0x24 PUSH1 0x0 REVERT JUMPDEST PUSH32 0x4E487B7100000000000000000000000000000000000000000000000000000000 PUSH1 0x0 MSTORE PUSH1 0x12 PUSH1 0x4 MSTORE PUSH1 0x24 PUSH1 0x0 REVERT JUMPDEST PUSH1 0x0 DUP1 REVERT JUMPDEST PUSH2 0xD33 DUP2 PUSH2 0xC49 JUMP JUMPDEST DUP2 EQ PUSH2 0xD3E JUMPI PUSH1 0x0 DUP1 REVERT JUMPDEST POP JUMP JUMPDEST PUSH2 0xD4A DUP2 PUSH2 0xC5B JUMP JUMPDEST DUP2 EQ PUSH2 0xD55 JUMPI PUSH1 0x0 DUP1 REVERT JUMPDEST POP JUMP JUMPDEST PUSH2 0xD61 DUP2 PUSH2 0xC87 JUMP JUMPDEST DUP2 EQ PUSH2 0xD6C JUMPI PUSH1 0x0 DUP1 REVERT JUMPDEST POP JUMP INVALID LOG2 PUSH5 0x6970667358 0x22 SLT KECCAK256 CALLDATALOAD 0xA5 JUMPI STATICCALL 0xE1 RETURNDATASIZE 0x2F DUP16 0xBA 0x27 SWAP10 JUMPDEST 0xB0 0xA5 KECCAK256 0xE1 0xEE MSIZE PUSH31 0xE8237D9AA2128D3EAB99B2B5D764736F6C6343000807003300000000000000 "
				},
				"gasEstimates": {
					"creation": {
						"codeDepositCost": "698600",
						"executionCost": "infinite",
						"totalCost": "infinite"
					},
					"external": {
						"earned(address)": "infinite",
						"getReward()": "infinite",
						"lastUpdateTime()": "2473",
						"rewardPerToken()": "infinite",
						"rewardPerTokenStored()": "2539",
						"rewardRate()": "2540",
						"rewards(address)": "2837",
						"rewardsToken()": "2685",
						"stake(uint256)": "infinite",
						"stakingToken()": "2689",
						"userRewardPerTokenPaid(address)": "2814",
						"withdraw(uint256)": "infinite"
					}
				},
				"methodIdentifiers": {
					"earned(address)": "008cc262",
					"getReward()": "3d18b912",
					"lastUpdateTime()": "c8f33c91",
					"rewardPerToken()": "cd3daf9d",
					"rewardPerTokenStored()": "df136d65",
					"rewardRate()": "7b0a47ee",
					"rewards(address)": "0700037d",
					"rewardsToken()": "d1af0c7d",
					"stake(uint256)": "a694fc3a",
					"stakingToken()": "72f702f3",
					"userRewardPerTokenPaid(address)": "8b876347",
					"withdraw(uint256)": "2e1a7d4d"
				}
			},
			"userdoc": {
				"kind": "user",
				"methods": {},
				"version": 1
			}
		}
	}
}